:100000000C949D040C943B150C9410150C94E51461
:100010000C94BA140C948F140C9464140C9439142A
:100020000C940E140C94CE040C94CE040C94CE04B8
:100030000C9486160C94CE040C94CE040C94CE042E
:100040000C94CE040C94CE040C94CE040C94CE04E8
:100050000C94CE040C94CE040C94CE040C94C413D3
:100060000C94CE040C948E130C9464130C94CE0454
:100070000C94CE040C94CE040C94CE040C94CE04B8
:100080000C94CE040C94CE040C94CE040C94CE04A8
:100090000C94CE040C94CE040C94CE040C946615EF
:1000A0000C94CE040C94CE040C94CE040C94CE0488
:1000B0000C94CE040C94CE040C94CE040C94CE0478
:1000C0000C94CE040C94CE040C94CE040C94CE0468
:1000D0000C94CE040C94CE040C94CE040C94CE0458
:1000E0000C94CE0408000000BE922449123EABAA34
:1000F000AA2ABECDCCCC4C3E00000080BEABAAAA42
:10010000AA3E00000000BF000000803F0000000089
:1001100000084178D3BB4387D1133D190E3CC3BDC2
:100120004282AD2B3E68EC8276BED98FE1A93E4C6F
:1001300080EFFFBE01C4FF7F3F00000000000763A7
:100140004236B79BD8A71A39685618AEBAAB558C49
:100150001D3CB7CC5763BD6DEDFD753EF617723192
:10016000BF000000803F0C94D20F0C949D060C94AD
:1001700016050C94AE050C94AF060C947F060C94F7
:1001800068050C9474060C94890A0C94BC080C94B1
:10019000760E0C94EA0F0C94450D0C9476050C9495
:1001A000170E0C9485060C94500F0C94A5060C9415
:1001B00078060C94AB060C9445050C940B0F0C942C
:1001C000C20F0C94DE0F0C94890F0C94AA060C94A9
:1001D00054050C940B0B0C94A1060C948F060C94F4
:1001E0007C060C9418050C949D100C946A060C94D3
:1001F00089060C949D160C94FB050C9497060C94A0
:1002000070060C949A0A0C9493060C94EE0E0C94BF
:1002100001050C94F10F0C9417050C949E100040EE
:100220007A10F35A00A0724E18090010A5D4E80005
:1002300000E87648170000E40B54020000CA9A3B1D
:10024000000000E1F50500008096980000004042A3
:100250000F000000A0860100000010270000000031
:10026000E803000000006400000000000A00000035
:1002700000000100000000002C76D888DC674F08E1
:1002800023DFC1DFAE59E1B1B796E5E3E453C63AE7
:10029000E651997696E8E6C28426EB898C9B62ED5E
:1002A000407C6FFCEFBC9C9F40F2BAA56FA5F49018
:1002B000055A2AF75C936B6CF9676DC11BFCE0E48F
:1002C0000D47FEF520E6B500D0ED902E03009435E5
:1002D00077050080841E080000204E0A000000C838
:1002E0000C333333330F986E12831141EF8D211489
:1002F000893BE65516CFFEE6DB18D1844B381BF759
:100300007C1D901DA4BBE424203284725E228100F7
:10031000C9F124ECA1E53D2700000000003E5B4F41
:100320005B3E3E6B4F6B3E1C3E7C3E1C183C7E3C55
:10033000181C577D571C1C5E7F5E1C00183C180063
:10034000FFE7C3E7FF0018241800FFE7DBE7FF30F3
:10035000483A060E2629792926407F050507407F61
:1003600005253F5A3CE73C5A7F3E1C1C08081C1CD4
:100370003E7F14227F22145F5F005F5F06097F01CA
:100380007F006689956A606060606094A2FFA294B5
:1003900008047E040810207E201008082A1C080883
:1003A0001C2A08081E101010100C1E0C1E0C3038D1
:1003B0003E3830060E3E0E06000000000000005FD2
:1003C00000000007000700147F147F14242A7F2AEE
:1003D00012231308646236495620500008070300B0
:1003E000001C2241000041221C002A1C7F1C2A08FC
:1003F000083E08080080703000080808080800005F
:1004000060600020100804023E5149453E00427FD2
:10041000400072494949462141494D331814127F21
:100420001027454545393C4A4949314121110907C1
:100430003649494936464949291E00001400000042
:100440004034000000081422411414141414004114
:1004500022140802015909063E415D594E7C1211D1
:10046000127C7F494949363E414141227F41414109
:100470003E7F494949417F090909013E4141517384
:100480007F0808087F00417F41002040413F017FF5
:10049000081422417F404040407F021C027F7F04BD
:1004A00008107F3E4141413E7F090909063E415106
:1004B000215E7F09192946264949493203017F01F6
:1004C000033F4040403F1F2040201F3F4038403FF7
:1004D000631408146303047804036159494D43000D
:1004E0007F4141410204081020004141417F040244
:1004F00001020440404040400003070800205454DB
:1005000078407F28444438384444442838444428B8
:100510007F385454541800087E090218A4A49C780B
:100520007F0804047800447D40002040403D007F67
:100530001028440000417F40007C047804787C0847
:100540000404783844444438FC182424181824241B
:1005500018FC7C08040408485454542404043F4400
:10056000243C4040207C1C2040201C3C4030403C2F
:1005700044281028444C9090907C4464544C44008F
:1005800008364100000077000000413608000201F3
:100590000204023C2623263C1EA1A161123A4040DF
:1005A000207A38545455592155557941225454785C
:1005B00042215554784020545579400C1E527212F5
:1005C000395555555939545454593955545458007E
:1005D00000457C410002457D420001457C407D1282
:1005E00011127DF0282528F07C54554500205454E4
:1005F0007C547C0A097F4932494949323A4444448F
:100600003A324A4848303A4141217A3A42402078C9
:10061000009DA0A07D3D4242423D3D4040403D3CCA
:1006200024FF2424487E4943662B2FFC2F2BFF09EF
:1006300029F620C0887E09032054547941000044E3
:100640007D413048484A32384040227A007A0A0ACE
:10065000727D0D19317D2629292F28262929292641
:1006600030484D4020380808080808080808382F86
:1006700010C8ACBA2F102834FA00007B0000081410
:100680002A142222142A14085500550055AA55AAE6
:1006900055AAFF55FF55FF000000FF00101010FF86
:1006A00000141414FF001010FF00FF1010F010F0E1
:1006B000141414FC001414F700FF0000FF00FF14D2
:1006C00014F404FC141417101F10101F101F14141E
:1006D000141F00101010F0000000001F1010101068
:1006E0001F10101010F010000000FF10101010105C
:1006F00010101010FF10000000FF140000FF00FF9A
:1007000000001F10170000FC04F414141710171435
:1007100014F404F40000FF00F71414141414141457
:10072000F700F7141414171410101F101F141414CA
:10073000F4141010F010F000001F101F0000001F34
:1007400014000000FC140000F010F01010FF10FF67
:10075000141414FF141010101F00000000F010FFFC
:10076000FFFFFFFFF0F0F0F0F0FFFFFF00000000E0
:1007700000FFFF0F0F0F0F0F3844443844FC4A4A64
:100780004A347E02020606027E027E026355494119
:10079000633844443C04407E201E2006027E020250
:1007A00099A5E7A5991C2A492A1C4C7201724C3064
:1007B0004A4D4D303048784830BC625A463D3E493B
:1007C0004949007E0101017E2A2A2A2A2A44445FDF
:1007D000444440514A444040444A51400000FF01D3
:1007E00003E080FF000008086B6B083612362436E1
:1007F000060F090F06000018180000001010003046
:1008000040FF0101001F01011E00191D1712003CCD
:100810003C3C3C000000000000000A0B02090C0DEB
:100820000E080703040100000000000000000000A3
:1008300000000000000000000000000000000000B8
:100840000000000012111000000000000000000075
:100850000000000000000000000000000000000098
:100860002100240027002A002D0030003300010160
:100870000000040107010A010000200023002600F7
:1008800029002C002F0032000001000003010601A6
:10089000090101021020200808102040102040808B
:1008A0000201020108040201010204081020408034
:1008B00080402010080402018004020180402010C2
:1008C000080402010804020101020408102040800B
:1008D00001020408102040800000220025002800AA
:1008E0002B002E0031003400020100000501080138
:1008F0000B010505050507050808080802020202A4
:100900000A0A0808040404040101010101010101AB
:100910000303030303030303040707070C0C0C0C76
:100920000C0C0C0C0202020206060606060606065F
:100930000B0B0B0B0B0B0B0B9D1611241FBECFEFDC
:10094000D1E2DEBFCDBF00E00CBF14E0A0E0B2E01A
:10095000E8E8FBE400E00BBF02C007900D92A63868
:10096000B107D9F726E0A6E8B4E001C01D92A63190
:10097000B207E1F714E0CDE9D4E000E006C021972A
:100980000109802FFE010E948423CC39D10780E029
:100990000807A9F70E94D0170C94C2250C940000F8
:1009A0003FB7F8948091FC049091FD04A091FE045F
:1009B000B091FF0426B5A89B05C02F3F19F0019602
:1009C000A11DB11D3FBFBA2FA92F982F8827BC01A9
:1009D000CD01620F711D811D911D42E0660F771FD1
:1009E000881F991F4A95D1F708952FB7F894609101
:1009F000F8047091F9048091FA049091FB042FBFE0
:100A000008950E94F50428EE33E040E050E00E9493
:100A1000A220CA01B9010895FC0120812EBD0DB4A8
:100A200007FEFDCF2EB5FC0120830895089508959B
:100A3000AF92BF92CF92DF92EF92FF920F931F93EC
:100A4000CF93DF936C017B018B01040F151FEB012A
:100A50005E01AE18BF08C017D10759F06991D601E1
:100A6000ED91FC910190F081E02DC6011995892B43
:100A700079F7C501DF91CF911F910F91FF90EF9012
:100A8000DF90CF90BF90AF900895FC01538D448DBF
:100A9000252F30E0842F90E0821B930B541710F029
:100AA000CF96089501970895FC01918D828D981736
:100AB00061F0A28DAE0FBF2FB11D5D968C91928D0E
:100AC0009F5F9F73928F90E008958FEF9FEF08953F
:100AD000FC01918D828D981731F0828DE80FF11D08
:100AE000858D90E008958FEF9FEF0895FC01918D23
:100AF000228D892F90E0805C9F4F821B91098F731C
:100B00009927089584E095E00E94760521E0892BDD
:100B100009F420E0822F0895FC01A48DA80FB92FBD
:100B2000B11DA35ABF4F2C91848D90E001968F7315
:100B30009927848FA689B7892C93A089B1898C9134
:100B4000837080648C93938D848D981306C0028883
:100B5000F389E02D80818F7D80830895EF92FF924D
:100B60000F931F93CF93DF93EC0181E0888F9B8DD0
:100B70008C8D98131AC0E889F989808185FF15C08A
:100B80009FB7F894EE89FF896083E889F9898081AD
:100B90008370806480839FBF81E090E0DF91CF917C
:100BA0001F910F91FF90EF900895F62E0B8D10E09E
:100BB0000F5F1F4F0F731127E02E8C8D8E110CC00D
:100BC0000FB607FCFACFE889F989808185FFF5CF58
:100BD000CE010E948C05F1CFEB8DEC0FFD2FF11DA6
:100BE000E35AFF4FF0829FB7F8940B8FEA89FB8995
:100BF00080818062CFCFCF93DF93EC01888D8823F3
:100C0000B9F0AA89BB89E889F9898C9185FD03C06F
:100C1000808186FD0DC00FB607FCF7CF8C9185FF54
:100C2000F2CF808185FFEDCFCE010E948C05E9CF08
:100C3000DF91CF91089580E090E0892B29F00E9408
:100C4000820581110E94000080E090E0892B49F02C
:100C500080E090E0892B29F00E94000081110E9421
:100C6000000080E090E0892B49F080E090E0892B43
:100C700029F00E94000081110E94000080E090E0B5
:100C8000892B49F080E090E0892B29F00E94000038
:100C900081110C94000008958150823108F05AC0EF
:100CA000E82FF0E08827E85AF94F8F4F0C948423FF
:100CB00078067C066A0670067406AA067F06850614
:100CC00089068F06930697069D06A106AA06A50625
:100CD000AB06AF06809180008F77809380000895E7
:100CE000809180008F7DF9CF80918000877FF5CF44
:100CF00084B58F7784BD089584B58F7DFBCF8091B7
:100D0000B0008F778093B00008958091B0008F7D00
:100D1000F9CF809190008F77809390000895809113
:100D200090008F7DF9CF80919000877FF5CF8091E3
:100D3000A0008F778093A00008958091A0008F7D00
:100D4000F9CF8091A000877FF5CF809120018F7728
:100D5000809320010895809120018F7DF9CF8091AB
:100D60002001877FF5CFCF93DF93282F30E0F90163
:100D7000E85EF74F8491F901EE56F74FD491F901EF
:100D8000EE50F74FC491CC23A1F081110E944C0684
:100D9000EC2FF0E0EE0FFF1FE858F74FA591B4914C
:100DA000EC91ED2381E090E009F480E0DF91CF91B8
:100DB000089580E090E0FACF1F93CF93DF93282F20
:100DC00030E0F901E85EF74F8491F901EE56F74FF4
:100DD000D491F901EE50F74FC491CC23A9F0162F0E
:100DE00081110E944C06EC2FF0E0EE0FFF1FE8523D
:100DF000F74FA591B4918FB7F894EC91111108C0F9
:100E0000D095DE23DC938FBFDF91CF911F910895A2
:100E1000DE2BF8CFCF93DF9390E0FC01EE56F74F37
:100E200024918E50974FFC0184918823D1F090E05B
:100E3000880F991FFC01E25AF74FA591B491FC016C
:100E4000E852F74FC591D49161110EC09FB7F89445
:100E50008C91E22FE0958E238C932881E223E88306
:100E60009FBFDF91CF9108958FB7F894EC91E22B5B
:100E7000EC938FBFF6CF90917B00977F90937B0090
:100E80008653806480937C0080917A008064809394
:100E90007A0080917A0086FDFCCF80917800909155
:100EA000790008958230910538F0880F991F880FD6
:100EB000991F05970197F1F708959F92AF92BF92FE
:100EC000CF92DF92EF92FF920F931F93CF93DF9316
:100ED000EC016B018885998511E0892B09F010E8F8
:100EE000F601A0808A2D8123992493948111912C5D
:100EF0002C813D814E815F8160E271EA87E090E064
:100F00000E94A220022FB12CE22EF12C002319F016
:100F1000C7010E9452078A85877F09F04FC08D85DF
:100F20008F3F89F09A2D912381E009F480E08915A3
:100F300051F0EF85F8898F899923D1F19081892B20
:100F4000808399249394E989FA898081998D892BEA
:100F50008083002319F0C7010E9452078E858F3FBE
:100F600039F0EB89FC898081988D892309F0B12AB9
:100F7000E989FA899081898D8095892380838E857E
:100F80008F3F11F0F601B08288859985892B09F091
:100F900044C0110F1111BACFDF91CF911F910F9162
:100FA000FF90EF90DF90CF90BF90AF909F9008950B
:100FB0009081809589238083912CC5CFE989FA8916
:100FC0008081998D892B8083002319F0C7010E94AD
:100FD00052078D858F3F49F0EF85F8898F899A2DCB
:100FE0009123B9F09081892B8083E989FA899081D6
:100FF000898D8095892380838E858F3F09F4BFCFAB
:10100000EB89FC898081988D892309F4B8CFB12AB6
:10101000B6CF908180958923E7CF1695BBCFAF924D
:10102000BF92CF92DF92EF92FF920F931F93CF93D5
:10103000DF931F92CDB7DEB78C015B016A01DC0143
:101040008D919C911197892B39F01296ED91FC911D
:10105000908181819CBD8DBDF80183858F3F19F002
:1010600060E00E94DC067501CA0CDB1CCE14DF04B4
:10107000A9F0D7018D917D018983F801808191814B
:10108000892B29F0CE0101960E940C05EFCFBE01FD
:101090006F5F7F4FC8010E945D07E8CFD8011B96A4
:1010A0008C918F3F19F061E00E94DC0681E00F9087
:1010B000DF91CF911F910F91FF90EF90DF90CF9034
:1010C000BF90AF9008958F929F92AF92BF92CF92B0
:1010D000DF92EF92FF924B015C010E94D0046B0102
:1010E0007C010E94D0046C197D098E099F09683E1D
:1010F000734081059105A8F321E0821A9108A108A7
:10110000B10888EEC80E83E0D81EE11CF11C8114E2
:101110009104A104B10429F7FF90EF90DF90CF90E4
:10112000BF90AF909F908F9008952091AD04260FAF
:101130003327331F21323105ECF42091D104FC0117
:1011400090E080E0243069F082E00895A091AD0441
:101150002191AC0143575B4FA40FB52FB11D2C93C8
:101160000196861798F38091AD04680F6093AD04E3
:1011700080E0089581E0089508958FEF9FEF08952E
:101180008FEF9FEF08958091860490E0919581956F
:1011900091090895CF93DF93CB01EA01642F0E9458
:1011A0009508CE01DF91CF910895CF93DF931F92E1
:1011B000CDB7DEB7698361E0CE0101960E94950844
:1011C00081E090E00F90DF91CF9108954115510596
:1011D00029F4EAE7F0E080818F7780836A30710537
:1011E000B9F0CB01880F991F880F991F8072677023
:1011F0006860682B88E10FB6F894A895809360002A
:101200000FBE60936000E0E6F0E080818064808340
:10121000232BB1F483B7817F846083BFF89483B7B5
:10122000816083BF7894889583B78E7F83BF7894DD
:10123000452B29F4EAE7F0E08081806880830895F7
:1012400083B7817F846083BFF89483B7816083BF55
:101250007894889583B78E7F83BF7894E9CF0F9376
:101260001F93CF93DF93EC018A899B89AC89BD8959
:10127000892B8A2B8B2B11F41D821C828C819D81E2
:101280008130910541F0029709F43FC0DF91CF9181
:101290001F910F9108950E94F5040E891F89288DD2
:1012A000398D601B710B820B930B0E851F8528896E
:1012B0003989601771078207930740F382E090E055
:1012C0009D838C8361E08A819B81892B09F060E09A
:1012D000862F90E09B838A8388810E94DC060E948F
:1012E000F5046E8B7F8B888F998F8A899B89AC8957
:1012F000BD890097A105B10549F20197A109B1097E
:101300008A8B9B8BAC8BBD8BC1CF8A819B81892BB8
:10131000C9F08A819B81019709F0B8CF0E94F5043A
:101320000E891F89288D398D601B710B820B930BE1
:101330000E811F8128853985601771078207930701
:1013400008F6A4CF0E94F5040E891F89288D398DD7
:10135000601B710B820B930B0A851B852C853D85C9
:101360006017710782079307A0F2ACCF0F931F930A
:10137000CF93DF931F92CDB7DEB78C01698360E016
:10138000FC01868D0E94DC0641E050E0BE016F5FEB
:101390007F4FF801838D948D0E940F080F90DF918D
:1013A000CF911F910F910895CF938091BE0587FD36
:1013B00013C061E00E940A0760E08091BE050E94B0
:1013C000DC0661E070E080E090E00E94630861E08C
:1013D0008091BE050E94DC06C091C105C83008F0AE
:1013E000C7E0C093C10561E281EA95E00E94B609B9
:1013F0006C2F606181EA95E00E94B60960E281EAA3
:1014000095E00E94B609C091C005C7FDCFE7C09323
:10141000C00561E281EA95E00E94B6096C2F606820
:1014200081EA95E00E94B60960E281EA95E00E94B7
:10143000B60960E281EA95E00E94B6096CE081EAB3
:1014400095E0CF910C94B609FF920F931F93CF9321
:10145000DF939091C205992339F08091C3058F5F86
:101460008917E8F58093C305D091C605D695D69522
:10147000D69584E5D89F800111248091C705869573
:10148000869586958D1780F16D2F606481EA95E0D1
:101490000E94B609C091C405F090C5056C2F606824
:1014A00081EA95E00E94B60961E08091BF050E9443
:1014B000DC064F2D50E06C2F70E0461B570B4F5F42
:1014C0005F4F600F711F605F7D4F8091BC059091F1
:1014D000BD050E940F08DF5F0C5A1F4FCECF109240
:1014E000C3050E94D409C0CF60E481EA95E00E9460
:1014F000B60983E58093C4051092C5058FE28093F9
:10150000C6051092C705DF91CF911F910F91FF90F3
:1015100008951F93CF93DF93EC01162F60E20E9492
:10152000B6096CE011116DE0CE01DF91CF911F91F2
:101530000C94B609FC0177FD55C08085918568172C
:1015400079070CF04FC057FD4DC082859385481731
:1015500059070CF047C08689823009F444C08330B3
:1015600009F44EC0813031F48FE290E0861B970B76
:10157000BA01AC01842FA62F93A1691708F4962F06
:1015800093A394A19A1708F49A2F94A395A189176D
:1015900008F4982F95A396A1981708F4982F96A36E
:1015A000CA0157FD0796E3E095958795EA95E1F71F
:1015B000A4E5A89FF001A99FF00D1124E60FF71FE5
:1015C000E05FFD4FCA0168E070E00E94702341E0D7
:1015D00050E001C0440F8A95EAF78081232BB9F0CF
:1015E000842B8083089583E590E0DC01A61BB70B74
:1015F000BD018FE290E0DC01A41BB50BAD01BACFB9
:1016000083E590E0841B950BAB01BC01B3CF409503
:101610008423E7CF0895FC016370668B84819581F4
:1016200026813781613039F0633029F091878087D6
:10163000338722870895318720879387828708958B
:101640002F923F924F925F926F927F928F929F92D2
:10165000AF92BF92CF92DF92EF92FF920F931F93C0
:10166000CF93DF93CDB7DEB76A970FB6F894DEBF9E
:101670000FBECDBF9A8F898F7A8369834A01D22E9C
:1016800018870F833701BC2CDC0159962D913C91B2
:101690005A972115310509F015C118968D919C9125
:1016A0001997681779070CF0D7C11A968D919C91FC
:1016B000481759070CF0D0C14C2C512CB6E0CB9EEA
:1016C000600D711D11247C876B87161617060CF0B0
:1016D000C3C1EA2DF0E0FA87E98793E0EE0FFF1F20
:1016E0009A95E1F7F88BEF87CF01840F951F1816B5
:1016F00019060CF0B1C1A98DBA8D58968C91811143
:1017000004C0BFEABD1508F4D394A98DBA8DED913C
:10171000FC9111970284F385E02DCD011995B5E078
:10172000DB9EC0011124E981FA81FC83EB83312C1B
:10173000212C9C01285E3C4F388F2F8B4A2D50E086
:101740005E8B4D8BEF89F88DE20DF31D44919E82E7
:101750008D82D12CC12C69817A81620D731D7A8BA7
:10176000698B842F90E09C8B8B8BE98DFA8DA08107
:10177000B18140FF82C0F1E0BF126FC0AF126DC0F7
:101780001C96ED91FC912F813885A4014C0D5D1DB7
:1017900069897A89898D9A8D1995EB89FC89F595E6
:1017A000E7954E2F5FEFC51AD50A6D817E818D8931
:1017B0009E89680F791F7E836D8398E0C916D104D6
:1017C00081F6AFEF2A1A3A0AEB81FC81E40DF51D90
:1017D000FC83EB83F5E02F16310409F0B3CF2F81A2
:1017E000388526153705B9F0A98DBA8DED91FC9194
:1017F000B1E0BB1257C0AB1255C069817A816B5FF3
:101800007F4F0088F189E02D830128E030E0A401BA
:10181000898D9A8D1995A98DBA8DED91FC911197AD
:101820000688F789E02DCD016A960FB6F894DEBFE1
:101830000FBECDBFDF91CF911F910F91FF90EF9021
:10184000DF90CF90BF90AF909F908F907F906F90E0
:101850005F904F903F902F9019941E96ED91FC91C0
:10186000EF80F88409851A8592014D815E816B8134
:101870007C81898D9A8D199590CF2F813885261579
:10188000370509F48ACF31E0B31207C0A31205C0AF
:101890001C96ED91FC91930178CF1E96ED91FC91F1
:1018A0007301E0CF6B857C85641975090684F78523
:1018B000E02D73010F8518899201A401898D9A8DFD
:1018C0001995A9CFF9013496949132974591549185
:1018D000D91AB7E0DB9E400D511D1124F901259165
:1018E00034913C8B2B8BFA0125903490FA0132967F
:1018F000749031963491398B32966490319644903D
:1019000041E04C1518F04A1508F07FC0662D062CF2
:10191000000C770B7C836B83842D042C000C990BBB
:101920009E838D83A98DBA8DED91FC9111970284D0
:10193000F385E02DCD011995512CD12CC12CEA2D28
:10194000F0E0FA87E9872B2D30E03C872B87A40154
:10195000440D511D47FC5A95588F4F8B69817A81F0
:10196000660D711D67FC7A957E876D877989C7162C
:1019700008F051CF2C2D30E04D815E81420F531F76
:10198000A985BA854A9FC0014B9F900D5A9F900D23
:101990001124FC01E80DF91DF88BEF87852D612CD2
:1019A0004F89588D420F531F5E8B4D8B671408F083
:1019B00050C044244394480E877041F4C1010196FD
:1019C000EB89FC89E20DF31DD4901C01D7FE19C0F0
:1019D000A98DBA8DED91FC91662D70E0B1E0BB123E
:1019E00019C0AB1217C02D853E85620F731F04848A
:1019F000F585E02D2F8138854D895E89898D9A8DF9
:101A00001995DD0C6394842DD1CF1E821D821C821A
:101A10001B8288CF4B815C81640F751FAB85BC85B1
:101A20006A9FC0016B9F900D7A9F900D1124698170
:101A30007A81680F791F0684F785E02DEF80F8849E
:101A400009851A859D014F855889898D9A8D19952B
:101A5000D8CF570CC3948ACF6A960FB6F894DEBFDE
:101A60000FBECDBFDF91CF911F910F91FF90EF90EF
:101A7000DF90CF90BF90AF909F908F907F906F90AE
:101A80005F904F903F902F9008958F929F92AF92CA
:101A9000CF92EF92FF920F931F93CF93DF93EC01BE
:101AA000262F898D9A8D009709F051C06A30D1F4A4
:101AB0001D861C868D8948E0849F900111248E85A7
:101AC0009F85820F931F9F878E8781E090E0DF9133
:101AD000CF911F910F91FF90EF90CF90AF909F907B
:101AE0008F9008956D3089F3CC88AD888F898823D5
:101AF000C1F08C859D8536E0C39E800D911D11241B
:101B0000488559854817590764F44E855F851D86B9
:101B10001C8638E0A39EC0011124840F951F9F8767
:101B20008E87EA88FB88088919894E855F856C85D0
:101B30007D85CE010E94200B2C898C859D8546E0F9
:101B4000249F800D911D11249D878C87BECF6A3004
:101B500069F41D861C86FC013896E4912D898E85DA
:101B60009F85E29F800D911D1124ADCF6D3009F44A
:101B7000ACCFFC0134963491631708F4A6CF3296AB
:101B8000E491E61708F4A1CFFC0132968590949079
:101B9000462F431B342F47E0349F800C911C1124A7
:101BA000F401329634913196E4913323A9F1EE2376
:101BB00099F1CC88F4013596E491AD884F8944239E
:101BC00001F10E2E000CFF0BE30FF11DCE9EA001C4
:101BD000CF9E500D11246C857D85460F571F68855B
:101BE0007985641775076CF44E855F851D861C86A4
:101BF000FC013896E491AE9E400D511D11245F8783
:101C00004E87EA88FB88088919894E855F856C852F
:101C10007D85CE010E94200BF4013496E4912C893D
:101C20008C859D85E29F800D911D11248DCF6F9233
:101C30007F928F929F92AF92BF92CF92DF92EF925C
:101C4000FF920F931F93CF93DF93EC016B015A0127
:101C500039014801E881F9810284F385E02D199565
:101C6000E881F9810288F389E02D87019301A501BC
:101C7000B601CE011995A501480D591D41505109D4
:101C8000E881F9810288F389E02D9301B601CE0144
:101C90001995E881F9810088F189E02D9401A50169
:101CA000B601CE011995C60CD71CB6016150710959
:101CB000E881F9810088F189E02D9401A501CE0128
:101CC0001995E881F9810688F789E02DCE01DF9129
:101CD000CF911F910F91FF90EF90DF90CF90BF9029
:101CE000AF909F908F907F906F9019946F927F929A
:101CF0008F929F92AF92BF92CF92DF92EF92FF921C
:101D00000F931F93CF93DF935C01EB016A014901AD
:101D100038018701DC01ED91FC916217730719F519
:101D2000641675062CF0962D872D3A01C92ED82EF3
:101D30009601261937092F5F3F4F048CF58DE02D52
:101D4000A301BE01C5011995DF91CF911F910F919C
:101D5000FF90EF90DF90CF90BF90AF909F908F90CB
:101D60007F906F9008954615570591F42617370711
:101D700024F0892D4B01C22FD82F9E012819390933
:101D80002F5F3F4F068CF78DE02DA601B401DACF0F
:101D90000284F385E02D1995D501ED91FC9104881D
:101DA000F589E02D83019401A601BE01C5011995B5
:101DB000D501ED91FC910688F789E02DC501DF91F1
:101DC000CF911F910F91FF90EF90DF90CF90BF9038
:101DD000AF909F908F907F906F901994EF92FF92A9
:101DE0000F931F93DC011A960D911C911B97189667
:101DF0002D913C911997ED91FC9100A0F1A1E02D5E
:101E00007B0150E040E070E060E019951F910F9178
:101E1000FF90EF9008954F925F926F927F928F9212
:101E20009F92AF92BF92CF92DF92EF92FF920F9369
:101E30001F93CF93DF936C012B015A0139014801A5
:101E4000DC01ED91FC910284F385E02D1995E2010E
:101E5000640C751CD601ED91FC91C615D7055CF498
:101E60000088F189E02D87019401A501BE01C6011A
:101E700019952196EFCF0688F789E02DC601DF91ED
:101E8000CF911F910F91FF90EF90DF90CF90BF9077
:101E9000AF909F908F907F906F905F904F9019942C
:101EA0008F929F92AF92BF92CF92DF92EF92FF926A
:101EB0000F931F93CF93DF93EC015B014A016901FC
:101EC000E881F9810284F385E02D199595012C0DA7
:101ED0003D1D21503109E881F9810488F589E02D03
:101EE00078018401A401B501CE011995E881F98139
:101EF0000688F789E02DCE01DF91CF911F910F91D8
:101F0000FF90EF90DF90CF90BF90AF909F908F9019
:101F100019948F929F92AF92BF92CF92DF92EF92DD
:101F2000FF920F931F93CF93DF93EC015B014A0164
:101F300069017801E881F9810284F385E02D199522
:101F4000C80CD91C860101501109E881F981048867
:101F5000F589E02D9501A401B501CE011995E8811F
:101F6000F9810688F789E02DCE01DF91CF911F918D
:101F70000F91FF90EF90DF90CF90BF90AF909F9028
:101F80008F901994EF92FF920F931F93DC01ED91C4
:101F9000FC9100A0F1A1E02D19951F910F91FF90E8
:101FA000EF9008950F931F93DC01ED91FC91068C47
:101FB000F78DE02D19951F910F9108950F931F93A1
:101FC000DC01ED91FC91048CF58DE02D19951F91AC
:101FD0000F910895DC01ED91FC910084F185E02DD5
:101FE00019942F923F924F925F926F927F928F92AD
:101FF0009F92AF92BF92CF92DF92EF92FF920F9398
:102000001F93CF93DF9300D000D0CDB7DEB73C0154
:102010006A013E832D83FC82EB825801A41AB50A23
:10202000B7FE03C0B194A194B1088D809E80861A3A
:10203000970A97FE03C09194819491088A149B0497
:102040005CF0902F812F0D811E819D838E839C2DAE
:102050008D2D6B01692F782F0C151D055CF09D816E
:102060008E817E836D83692F782F902F812F86013B
:10207000C92ED82E1601201A310A2B012D813E813E
:10208000421A530A57FE03C05194419451087101FA
:1020900037FE03C03FEFE31AF30AF594E7948D810E
:1020A0009E81861797075CF5A1E0B0E0BA83A9830B
:1020B000C016D1064CF1D301ED91FC910484F58555
:1020C000E02D2B813C81A8016D817E818A149B04C7
:1020D0001CF04D815E81B801C3011995E418F50823
:1020E000F7FE0AC02D813E8189819A81280F391F10
:1020F0003E832D83E20CF31C0F5F1F4FD9CF2FEFD0
:102100003FEF3A832983D4CF26960FB6F894DEBFEB
:102110000FBECDBFDF91CF911F910F91FF90EF9038
:10212000DF90CF90BF90AF909F908F907F906F90F7
:102130005F904F903F902F900895089590E080E039
:102140000895E0E1F2E088EF91E0DF019C011D924B
:1021500021503040E1F71092C4058091C5058335C8
:1021600008F483E58093C5051092C6058091C705E4
:102170008F3208F48FE28093C7051092AE0510925B
:10218000AD051092B0051092AF050895FB010190C6
:102190000020E9F73197AF01461B570BDC01ED91A9
:1021A000FC910280F381E02D19948F929F92AF925F
:1021B000BF92EF92FF920F931F93CF93DF93CDB710
:1021C000DEB7A1970FB6F894DEBF0FBECDBF7C017E
:1021D000FA01CB0119A2223008F42AE08E010F5D2A
:1021E0001F4F822E912CB12CA12CBF01A50194016F
:1021F0000E94A220F901CA016A300CF5605DD80185
:102200006E938D01232B242B252B79F790E080E012
:10221000109721F0BD01C7010E94C610A1960FB60C
:10222000F894DEBF0FBECDBFDF91CF911F910F910C
:10223000FF90EF90BF90AF909F908F900895695C52
:10224000DECFCF93DF93BC0181EA95E00E94C610F8
:10225000EC016CE474E081EA95E00E94C6108C0FFA
:102260009D1FDF91CF9108952F923F924F925F92E1
:102270006F927F928F929F92AF92BF92CF92DF9296
:10228000EF92FF921F93CF93DF93EC016A017B01E2
:10229000722EAB019601CB01B6010E9486226FE43B
:1022A00074E0811126C046015701E894B7F82FEF7A
:1022B0003FEF4FE75FE7C501B4010E94862281111D
:1022C0000CC02FEF3FEF4FE75FE7C501B4010E945D
:1022D000511F63E574E0181664F02FEF3FEF4FE7EE
:1022E0005FE4C701B6010E94E1211816B4F467E566
:1022F00074E0CE01DF91CF911F91FF90EF90DF90BE
:10230000CF90BF90AF909F908F907F906F905F9095
:102310004F903F902F900C94C6102FEF3FEF4FE758
:102320005FECC701B6010E94511F87FDE0CF20E09E
:1023300030E0A901C701B6010E94511F312C212CA8
:1023400087FF0DC0E881F9810190F081E02D6DE2F9
:10235000CE0119951C01F7FAF094F7F8F09410E00B
:1023600060E070E080E09FE3711641F020E030E033
:1023700040E251E40E9440211F5FF6CFA701960181
:102380000E94D4202B013C010E94B2214B015C0130
:102390002AE0BC01A401CE010E94D5107C01E20C10
:1023A000F31C1123E1F1C501B4010E94561F9B01EA
:1023B000AC01C301B2010E94D3204B015C01E88152
:1023C000F9810190F081E02D6EE2CE011995E80EC1
:1023D000F91E115020F120E030E040E251E4C50147
:1023E000B4010E94B71F2B013C010E94B2214B0196
:1023F000B12CA12C2AE0B501A401CE010E94D51078
:10240000E80EF91EC501B4010E94561F9B01AC01E4
:10241000C301B2010E94D3204B015C01DACFC70196
:10242000DF91CF911F91FF90EF90DF90CF90BF9001
:10243000AF909F908F907F906F905F904F903F9064
:102440002F9008950E94AD250F931F93CF93DF9394
:10245000EC0188819981009759F02A813B812617E8
:10246000370730F081E0DF91CF911F910F910895F0
:102470008B016F5F7F4F0E94CC24009759F09983A6
:1024800088831B830A832C813D81232B59F7FC0110
:102490001082E8CF80E0E7CFCF93DF93EC01888113
:1024A0009981009711F00E944324198218821D829D
:1024B0001C821B821A82DF91CF910895EF92FF92C6
:1024C0000F931F93CF93DF93EC01198218821B8225
:1024D0001A821D821C828617970719F1FB01008161
:1024E000118101151105E9F0E480F580B7010E9422
:1024F0002412811109C0CE01DF91CF911F910F915C
:10250000FF90EF900C944C12FD82EC82B801888110
:102510009981DF91CF911F910F91FF90EF900C94D3
:10252000BB25DF91CF911F910F91FF90EF90089500
:10253000FC0180819181009711F00C94432408954F
:10254000CF92DF92EF92FF920F931F93CF93DF937F
:10255000CDB7DEB7A1970FB6F894DEBF0FBECDBFE3
:102560007C01CB01BA01F701118210821382128221
:102570001582148242E0420F8E010F5F1F4F0E94AE
:10258000E21C6C01009771F0FC0101900020E9F75A
:1025900031978F01081B190BB801C7010E94241243
:1025A000811112C0C7010E944C12A1960FB6F89477
:1025B000DEBF0FBECDBFDF91CF911F910F91FF9076
:1025C000EF90DF90CF900895F70115830483B60153
:1025D000808191810E94BB25E8CF1F93CF93DF9329
:1025E00085ED8093BC008091890490918A04A0912C
:1025F0008B04B0918C040796A11DB11D23E0B69504
:10260000A795979587952A95D1F72091BC0024FD31
:1026100003C01092D10452C04091890450918A04A1
:1026200060918B0470918C04452B462B472B69F3EA
:102630000097A105B10541F025E32A95F1F70000C7
:102640000197A109B109E1CF80918804C1E0C0934D
:102650008704882399F1D091B8001091BA00809135
:10266000BC008A7B8093BC0060E084E10E94DC06B1
:1026700060E085E10E94DC061092D104C093D3048F
:102680001092D20461E084E10E94DC0661E085E101
:102690000E94DC068091B9008E7F8093B900809102
:1026A000B9008D7F8093B90088E48093B80085E4F9
:1026B0008093BC001093BA00D093B800DF91CF9103
:1026C0001F9108950C9475201F920F920FB60F92D0
:1026D00011240BB60F922F933F934F935F936F93F9
:1026E0007F938F939F93AF93BF93EF93FF9384E078
:1026F00095E00E948C05FF91EF91BF91AF919F9162
:102700008F917F916F915F914F913F912F910F909A
:102710000BBE0F900FBE0F901F9018951F920F9237
:102720000FB60F9211240BB60F922F938F939F9396
:10273000EF93FF93E0911405F09115058081E091EE
:102740001A05F0911B0582FD1DC0908180911D0529
:102750008F5F8F7320911E05821741F0E0911D0558
:10276000F0E0EC5FFA4F958F80931D05FF91EF919C
:102770009F918F912F910F900BBE0F900FBE0F90D6
:102780001F9018958081F2CF1F920F920FB60F9273
:1027900011242F933F938F939F93AF93BF93809177
:1027A000F8049091F904A091FA04B091FB043091DF
:1027B000F70423E0230F2D3758F50196A11DB11D15
:1027C0002093F7048093F8049093F904A093FA04FB
:1027D000B093FB048091FC049091FD04A091FE0451
:1027E000B091FF040196A11DB11D8093FC0490934C
:1027F000FD04A093FE04B093FF04BF91AF919F919D
:102800008F913F912F910F900FBE0F901F901895B1
:1028100026E8230F0296A11DB11DD2CF1F920F9261
:102820000FB60F9211240BB60F922F933F934F9335
:102830005F936F937F938F939F93AF93BF93EF9328
:10284000FF93E0910E02F0910F021995FF91EF9125
:10285000BF91AF919F918F917F916F915F914F91B8
:102860003F912F910F900BBE0F900FBE0F901F90B6
:1028700018951F920F920FB60F9211240BB60F925C
:102880002F933F934F935F936F937F938F939F9378
:10289000AF93BF93EF93FF93E0910C02F0910D0281
:1028A0001995FF91EF91BF91AF919F918F917F917A
:1028B0006F915F914F913F912F910F900BBE0F90B1
:1028C0000FBE0F901F9018951F920F920FB60F9288
:1028D00011240BB60F922F933F934F935F936F93F7
:1028E0007F938F939F93AF93BF93EF93FF93E09169
:1028F0000202F09103021995FF91EF91BF91AF9100
:102900009F918F917F916F915F914F913F912F9107
:102910000F900BBE0F900FBE0F901F9018951F9237
:102920000F920FB60F9211240BB60F922F933F9375
:102930004F935F936F937F938F939F93AF93BF93C7
:10294000EF93FF93E0910002F09101021995FF913E
:10295000EF91BF91AF919F918F917F916F915F9117
:102960004F913F912F910F900BBE0F900FBE0F9084
:102970001F9018951F920F920FB60F9211240BB64D
:102980000F922F933F934F935F936F937F938F9308
:102990009F93AF93BF93EF93FF93E0910A02F0915F
:1029A0000B021995FF91EF91BF91AF919F918F917C
:1029B0007F916F915F914F913F912F910F900BBE3F
:1029C0000F900FBE0F901F9018951F920F920FB689
:1029D0000F9211240BB60F922F933F934F935F9357
:1029E0006F937F938F939F93AF93BF93EF93FF93D7
:1029F000E0910802F09109021995FF91EF91BF91C2
:102A0000AF919F918F917F916F915F914F913F9186
:102A10002F910F900BBE0F900FBE0F901F90189527
:102A20001F920F920FB60F9211240BB60F922F9395
:102A30003F934F935F936F937F938F939F93AF9346
:102A4000BF93EF93FF93E0910602F091070219956F
:102A5000FF91EF91BF91AF919F918F917F916F9176
:102A60005F914F913F912F910F900BBE0F900FBE32
:102A70000F901F9018951F920F920FB60F9211246E
:102A80000BB60F922F933F934F935F936F937F9368
:102A90008F939F93AF93BF93EF93FF93E0910402C3
:102AA000F09105021995FF91EF91BF91AF919F9120
:102AB0008F917F916F915F914F913F912F910F90E7
:102AC0000BBE0F900FBE0F901F9018951F920F9284
:102AD0000FB60F9211240BB60F922F933F934F9383
:102AE0005F936F937F938F939F93AF93BF93EF9376
:102AF000FF938091B900887F803609F44DC008F0BB
:102B000040C0883209F4A7C028F5803109F49BC081
:102B1000C8F4882309F4F7C0883009F494C0FF9101
:102B2000EF91BF91AF919F918F917F916F915F9145
:102B30004F913F912F910F900BBE0F900FBE0F90B2
:102B40001F901895883109F486C0803241F7809330
:102B5000D00414C0803409F49BC040F48033B9F32E
:102B60008833E9F68093D00485ECAEC0803509F453
:102B700083C0883509F494C0883489F60E94ED1228
:102B8000CECF883909F48AC038F5883729F050F457
:102B9000883611F0803719F683E08093D1041092C3
:102BA000CF0455C0883809F479C0803919F08038CD
:102BB00009F0B5CF8091CF04803208F06FC0E0916A
:102BC000CF0481E08E0F8093CF048091BB00F0E0B2
:102BD000E155FB4F80833BC0803B39F0D0F4803A15
:102BE00009F477C0883A09F09ACF84E08093D10441
:102BF0001092AE041092AD04F0E0E0E019958091DF
:102C0000AD0481110FC081E08093AD0410928D045A
:102C100009C0803C09F4A8CF883C09F4A5CF883BC3
:102C200009F07DCFE091AE0481E08E0F8093AE0479
:102C3000F0E0E357FB4F80818093BB009091AE049E
:102C40008091AD0429C08091F6048093BB0085EC8F
:102C50008093BC0064CF9091F5048091F4049817A0
:102C600058F5E091F50481E08E0F8093F504F0E0D3
:102C7000EC52FB4F8081E9CFE091F50481E08E0FAB
:102C80008093F5048091BB00F0E0EC52FB4F808311
:102C90009091F5048091F4049817C8F285E8D8CF94
:102CA000E091F50481E08E0F8093F5048091BB00E4
:102CB000F0E0EC52FB4F80838091D30481115ECF12
:102CC00081E08093D20484EA8093BC001092D10406
:102CD00026CF85EC8093BC001092D1048091CF0464
:102CE000803230F4E091CF04F0E0E155FB4F1082E8
:102CF0006091CF0470E08FEA94E0F0E0E0E0199595
:102D00001092CF040CCF1092D00438CF1F920F92A4
:102D10000FB60F9211248F930FB6F894A895809157
:102D20006000886180936000109260000FBE8F91F8
:102D30000F900FBE0F901F901895CF92DF92EF92D9
:102D4000FF920F931F93CF93DF93E4E0F5E013829C
:102D5000128288EE93E0A0E0B0E084839583A6839E
:102D6000B78382E194E09183808385EC90E095873E
:102D7000848784EC90E09787868780EC90E0918B45
:102D8000808B81EC90E0938B828B82EC90E0958B32
:102D9000848B86EC90E0978B868B118E128E138E2F
:102DA000148EC7E0D6E081E0E82E85E0F82EF986A3
:102DB000E8860E940105688379838A839B831C824D
:102DC0001D821E821F8211E01A87CCEFD5E0F986A2
:102DD000E8860E940105688379838A839B831C822D
:102DE0001D821E821F821A87E2EEF5E01182108298
:102DF000138212821582148216821782108611861F
:102E00001286138614861586CC24CA94DC2C76018F
:102E1000C28AD38AE48AF58A168A178A108E118E9E
:102E200061E080E00E940A07E8ECF5E087E090E0CE
:102E300091838083138212821582148216821782F4
:102E4000108611861286138614861586C28AD38A46
:102E5000E48AF58A168A178A108E118E61E00E9424
:102E60000A07C1EAD5E01B821A8224E530E03D83DF
:102E70002C8380E390E09F838E83398728879B870C
:102E80008A871E8A1D861C861F861E861D8B1C8BAC
:102E90008FEF9FEF9B8B8A8B998B888B1F8B188E64
:102EA0001A8E198E84E294E0998388838CE190E0F5
:102EB0000E94A7238C018BE0D8011B968C931B9753
:102EC00088E01C968C931C978FEF1E968C931E9710
:102ED00089E01D968C931D97EDEFF8E0E491F0E00A
:102EE000EE0FFF1FE852F74F85919491F801968BF2
:102EF000858BEDE9F8E0E4915A96EC935A97EBEF65
:102F0000F8E0E491F0E0EE0FFF1FE852F74F8591F3
:102F10009491F801908B8787EBE9F8E0E49157965C
:102F2000EC935797EAEFF8E0E491F0E0EE0FFF1F23
:102F3000E852F74F85919491F801928B818BEAE9E1
:102F4000F8E0E4915996EC9380E099E0ADE3B0E0CD
:102F5000F80184839583A683B78381E090E091870D
:102F600080871286138E82E090E00E94A72320E5DE
:102F7000DC012C9311961C92F801938382831182B9
:102F800010821C8F0B8F8AE08E8F8CE08D8FDF91EB
:102F9000CF911F910F91FF90EF90DF90CF90089508
:102FA000CF93DF93CDB7DEB76C970FB6F894DEBF43
:102FB0000FBECDBF789484B5826084BD84B5816036
:102FC00084BD85B5826085BD85B5816085BD8091F4
:102FD0006E00816080936E0010928100809181006C
:102FE0008260809381008091810081608093810064
:102FF000809180008160809380008091B100846026
:103000008093B1008091B00081608093B000809186
:103010009100826080939100809191008160809303
:103020009100809190008160809390008091A10038
:1030300082608093A1008091A10081608093A100B3
:103040008091A00081608093A00080912101826026
:1030500080932101809121018160809321018091E1
:10306000200181608093200180917A0084608093A8
:103070007A0080917A00826080937A0080917A0051
:10308000816080937A0080917A00806880937A00D2
:103090001092C100E0911405F091150582E0808343
:1030A000E0911005F09111051082E0911205F09168
:1030B00013058FEC808310921C05E0911805F091A8
:1030C000190586E08083E0911605F091170580814F
:1030D00080618083E0911605F091170580818860FA
:1030E0008083E0911605F0911705808180688083C8
:1030F000E0911605F091170580818F7D808361E056
:1031000081E00E940A0760E086E10E940A070091C0
:10311000BC051091BD05D8011B968C918F3F41F0E5
:1031200061E00E940A0761E0F80183850E94DC06E5
:10313000D8018D919C91892B09F4F5C3FFB6F894C1
:1031400080910005811127C0E7E2F9E08491E7EC66
:10315000F8E09491E82FF0E0EE0FFF1FE25AF74FEE
:10316000A591B491EC91E92321F461E085E30E94FB
:10317000DC0661E085E30E940A078CB580618CBDA6
:103180008CB580648CBD61E084E30E940A0761E035
:1031900083E30E940A07809100058F5F80930005FA
:1031A000FFBE81E0F801838F61E08091BF050E943E
:1031B0000A078091BE0587FD03C061E00E940A07EF
:1031C00084E08093C10588E28093C0051092C20517
:1031D0001092C3050E94D4091092C4058091C505C0
:1031E000833508F483E58093C5051092C605809168
:1031F000C7058F3208F48FE28093C7050E94240A26
:1032000061E082E10E94DC0685E40E94B3068C0145
:1032100087E30E943B0724E630E0DC010E948C2318
:103220002FEF33E040E050E00E94832069017A01F3
:1032300089E30E943B07BC01990F880B990B0E9400
:10324000581F20E030E040EA50E40E94B71F20E021
:1032500030EC4FE754E40E9440214B015C0120E038
:1032600030E44CE156E40E94B71F2B013C01A5015C
:10327000940160E070E080EA90E40E94D3209B011A
:10328000AC01C301B2010E9440212AE63CEB44E9B3
:103290005FEB0E9436222AE134E342E559E40E94C2
:1032A000B71F2B013C018AE30E94B3065C010E9418
:1032B000A1101092AE051092AD051092B0051092BB
:1032C000AF056BE574E081EA95E00E94C6102AE044
:1032D000B701A601F7FE0DC06DE281EA95E00E94FC
:1032E000450D44275527BA014C195D096E097F0920
:1032F0002AE081EA95E00E94D5106CE474E081EA4E
:1033000095E00E94C61022E0B301A20181EA95E097
:103310000E94341185E694E00E9421118AE694E02F
:10332000AB2811F085E794E00E942111012B11F0E8
:103330000E94A1100E94240A8BE30E943B07BC015B
:10334000990F880B990B0E94581F2AE939E949E91E
:1033500050E40E94B71F20E030EC4FE754E40E9495
:10336000402120E030E040E250E40E94B71F6B01B2
:103370007C0122E0BC01A60184E095E00E943411AA
:103380006CE474E084E095E00E94C61088EC95E05F
:103390000E942F0920E030E040EC50E4C701B60164
:1033A0000E94511F18160CF4E9C28AEF90E0A0E0C9
:1033B000B0E08093CE059093CF05A093D005B09355
:1033C000D10584EF91E0A0E0B0E08093D205909326
:1033D000D305A093D405B093D5051092D6051092CD
:1033E000D7051092D8051092D9058FEF9FEFDC0119
:1033F0008093DA059093DB05A093DC05B093DD059F
:103400008091CC059091CD05892B81F4A1E0B0E0AD
:10341000B093CD05A093CC050E94F5046093DE0522
:103420007093DF058093E0059093E10560E082E111
:103430000E94DC06E6E1F5E0F0930B02E0930A025D
:10344000809169008F73806480936900EB9A30E00B
:1034500020E050E040E06AE070E083E095E00E9408
:10346000E608EB9887E195E090930B0280930A02BF
:1034700064EF71E080E090E00E94630882EE95E0E6
:103480000E942F0986E10E94B3061C0186E30E9478
:103490003B077C0188E30E943B078C01B701FF0CCE
:1034A000880B990B0E94581F20E030E040E85AE357
:1034B0000E94B71F20E030E040EA50E40E94B71FAE
:1034C0002B013C0120E030E44CE156E40E94B71FA0
:1034D0006B017C01A301920160E070E080EA90E45E
:1034E0000E94D3209B01AC01C701B6010E9440217C
:1034F0004B015C010E94EE216B017C0122EC3BE858
:1035000049EB51E30E94B71FA70196010E94B71F24
:10351000A70196010E94B71F698F7A8F8B8F9C8FAE
:1035200022EB3FEF46E959E3C701B6010E94B71FFE
:1035300025EB3EEC46E35AE30E94D4209B01AC010C
:10354000698D7A8D8B8D9C8D0E94D4209B01AC015E
:1035500060E070E080E89FE30E9440216B017C0105
:10356000A3019201C301B2010E94B71F2B013C01CC
:1035700020E030E040E250E4C501B4010E94B71FF2
:103580009B01AC01C301B2010E94402120E030E068
:103590004AE754E40E94B71F9B01AC01C701B60182
:1035A0000E94D32023E333E948E853E40E94D32068
:1035B0004B015C01B801110F880B990B0E94581F39
:1035C00020E030E040E85AE30E94B71F20E030E0FE
:1035D00040EA50E40E94B71F20E030E040EC50E4A5
:1035E0000E94B71F6B017C0140900B0650900C06A7
:1035F00060900D0670900E0680911106882309F4E4
:10360000CCC1E0910F06F0911006199500910706C4
:10361000109108062091090630910A06DC01CB01C1
:10362000801B910BA20BB30B480E591E6A1E7B1E0A
:103630009CE2491691E059066104710408F479C0CE
:103640000091010510910205C501B4010E94B2214B
:10365000662EC701B6010E94B221762E0115A0E1A7
:103660001A0708F49EC110E000E060E0C8010E9463
:1036700062130F5F1F4F0115B0E11B07B1F71092E6
:10368000020510920105662D90E080E00E94621311
:103690008091010590910205049690930205809314
:1036A00001056AE00E946213809101059091020574
:1036B000049690930205809301056AE00E946213CC
:1036C00080910105909102050496909302058093E4
:1036D0000105672D0E9462138091010590910205FA
:1036E0000496909302058093010561E00E946213A5
:1036F00080910105909102050496909302058093B4
:103700000105E0910F06F0911006199560930706E8
:10371000709308068093090690930A0610920B0690
:1037200010920C0610920D0610920E0681E0809306
:103730001106E1E02E16310409F0F2C084E190E0B8
:10374000A0E0B0E08093E8059093E905A093EA0536
:10375000B093EB058093EC059093ED05A093EE05F7
:10376000B093EF051092F0051092F1051092F2055A
:103770001092F3058FEF9FEFDC018093F405909397
:10378000F505A093F605B093F7058091E6059091B5
:10379000E705892B71F43092E7052092E6050E9437
:1037A000F5046093F8057093F9058093FA059093FA
:1037B000FB05409000065090010660900206709054
:1037C000030680910606882309F4EEC0E091040602
:1037D000F091050619950091FC051091FD052091C9
:1037E000FE053091FF05DC01CB01801B910BA20B84
:1037F000B30B480E591E6A1E7B1E96E049165104F3
:103800006104710408F48CC021E0B501A401CE016B
:1038100043960E94A01223E0B701A601CE010D96A7
:103820000E94A012BE016D5E7F4FCE0101960E94E4
:103830005E120D811E810F5F1F4FB801CE010196F0
:103840000E942412882309F4B3C029813A818D8112
:103850009E8163E874E0820F931F0E94BB251E8344
:103860000D83ED84FE84E114F10409F4A6C00989F6
:103870001A8901151105B9F08D819E81080F191F54
:10388000B801CE0101960E942412882309F495C044
:1038900029813A818D819E81B701820F931F0E94F9
:1038A000BB251E830D83BE016F5F7F4FCE01079640
:1038B0000E945E12CE0101960E9498124B855C8593
:1038C0006F81788584E095E00E9418056CE474E0CF
:1038D00084E095E00E94C610E0910406F091050690
:1038E00019956093FC057093FD058093FE059093F8
:1038F000FF05109200061092010610920206109227
:10390000030681E080930606CE0107960E94981276
:10391000CE010D960E949812CE0143960E949812F5
:103920000E941B0671CC61E0F80184850E940A07A1
:10393000D8011A968C911A978B7FE1F460E01C965F
:103940008C910E94DC06D8011D968C918F3F41F02E
:1039500061E00E940A0761E0F80185850E94DC06AB
:10396000D8011E968C918F3F09F41BCC60E00E9419
:103970000A0717CC61E0F8018485E3CF1092CD05EA
:103980001092CC051092CB051092CA0560E0809190
:10399000C8050E94DC0661E04ACD80E090E0DC01D1
:1039A00043CE662DC80172CE80E090E0DC0121CFCD
:1039B000CE0101960E944C1254CFCE0101960E9476
:1039C0004C1271CFEF920F931F93CF93DF93E801C7
:1039D00034E047FD34E1042E000C550B57FF03C0C3
:1039E000519541955109E32E022F242FAE010E94DB
:1039F000001DCE01DF91CF911F910F91EF9008959F
:103A00008F929F92AF92BF92CF92DF92EF92FF92EE
:103A10000F931F93CF93DF9300D000D000D0CDB78A
:103A2000DEB76A01F22EB02E102FFBE3AF2EA016E8
:103A300008F41BE31F5F012F27E0AE014F5F5F4FCC
:103A40000E94791EBC018981982F9970913009F4E8
:103A50004EC09BE2E1FC04C09E2D9170E0FC49C089
:103A60005E2D5071E82FE87083FF55C084E09111FE
:103A700001C083E0EF2DE81B8F1508F0E0E0D601D0
:103A80008E2F20E25523C9F1992329F0D6019C936A
:103A9000C60101966C0196012D5F3F4FE2FE33C0D7
:103AA0008EE4D6018C9391E411969C931197129613
:103AB0008C93D9018E2F90E281112AC0E20FF32F4F
:103AC000F11D10828EEF9FEF29960FB6F894DEBF9E
:103AD0000FBECDBFDF91CF911F910F91FF90EF905F
:103AE000DF90CF90BF90AF909F908F9008959DE210
:103AF000B7CF90E2B5CF2D9381508111FCCFCE0E80
:103B0000D11CE0E0C1CF8EE6D6018C9391E6CCCFFC
:103B10009D938150D1CF482F447082FF3DC084E0F7
:103B2000911101C083E08F1510F4EF2DE81BD60131
:103B30008E2F20E2552309F1992329F0D6019C9379
:103B4000C60101966C0196012D5F3F4FE2FE1BC03E
:103B500089E4D6018C938EE411968C93119786E4B8
:103B600012968C93D9018E2F90E2882309F4A6CF68
:103B70009D938150FACF2D9381508111FCCFCE0EB1
:103B8000D11CE0E0D9CF89E6D6018C938EE6119660
:103B90008C93119786E6E4CF9B0177FF02C030E05B
:103BA00020E0A1E0B0E0911102C0B0E0A0E0F90196
:103BB0003196AE0FBF1F8B2C912CBB2009F461C036
:103BC0005401EFEFAE1ABE0AAA0DBB1DFA161B0672
:103BD00019F014F04F2D4A1B511188C0E3FC59C055
:103BE0007601A42FB0E2A1114FC0C40ED11C9923BD
:103BF00009F45BC040E0D6011196F60190836D0197
:103C0000552309F448C0012F060F9A81582F50718F
:103C100084FF03C0913309F4015010160CF047C023
:103C2000093008F008E0EEE2FE2E5B01A01AB108B0
:103C300085019194819491082F3F320729F4D60190
:103C4000FC92F60131966F016217730794F1021727
:103C500013077CF5DB01A21BB30BAA24A394B12CA0
:103C6000AC0EBD1EAA0DBB1D11968C9121503109C1
:103C7000D601119628153905F4F0F60180836D01FF
:103C8000DBCFB12CA12CA0CFF701B1937F01A150C4
:103C9000AACF9111B0CFD601942F50E302C05D930B
:103CA00091509111FCCFC40ED11C40E0ACCF01E08B
:103CB000BACF80E3DBCF6217730731F4963388F411
:103CC000953311F4552369F0F6018083FD01842FAB
:103CD00090E2811108C0A40FB11D1C9290E080E019
:103CE000F3CE81E3F1CF91938150F3CF911183CF44
:103CF0008ACF283008F027E03327DA01990F311DE9
:103D000087FD916000966105710539F432602E5F80
:103D10003D9330E32A95E1F708959F3F30F08038D6
:103D20007105610509F03C5F3C5F3D93913008F0FF
:103D30008068911DDF93CF931F930F93FF92EF92B3
:103D4000192F987F9695E92F96959695E90FFF275D
:103D5000E858FD4F99273327EE24FF24A701E701F8
:103D600005900894079428F4360FE71EF81E491FA3
:103D7000511D660F771F881F991F0694A1F70590A4
:103D8000079428F4E70EF81E491F561FC11D770F30
:103D9000881F991F661F0694A1F70590079428F4C1
:103DA000F80E491F561FC71FD11D880F991F661F88
:103DB000771F0694A1F70590079420F4490F561F2A
:103DC000C71FD81F990F661F771F881F0694A9F772
:103DD00084911095177041F0D695C79557954795E2
:103DE000F794E7941A95C1F7EEE1F2E06894159024
:103DF000159135916591959105907FE27395E11844
:103E0000F10A430B560BC90BD009C0F7E10CF11EA8
:103E1000431F561FC91FD01D7EF4703311F48A95BD
:103E2000E6CFE894015030F0080F0AF4002702179B
:103E300008F4202F2395022F7A3328F079E37D931D
:103E40002A95E9F710C07D932A9589F606949795EF
:103E50006795379517951794E118F10A430B560BA0
:103E6000C90BD00998F023957E9173957A3308F0A9
:103E700070E37C932013B8F77E9170617D9330F0EE
:103E8000839571E37D9370E32A95E1F71124EF9018
:103E9000FF900F911F91CF91DF91992787FD90950A
:103EA00008950E94931F08F481E00895E89409C0E2
:103EB00097FB3EF490958095709561957F4F8F4F5D
:103EC0009F4F9923A9F0F92F96E9BB279395F69573
:103ED000879577956795B795F111F8CFFAF4BB0FF1
:103EE00011F460FF1BC06F5F7F4F8F4F9F4F16C055
:103EF000882311F096E911C0772321F09EE8872FDF
:103F0000762F05C0662371F096E8862F70E060E09A
:103F10002AF09A95660F771F881FDAF7880F969513
:103F2000879597F90895990F0008550FAA0BE0E8B7
:103F3000FEEF16161706E807F907C0F0121613066B
:103F4000E407F50798F0621B730B840B950B39F4AB
:103F50000A2661F0232B242B252B21F408950A2611
:103F600009F4A140A6958FEF811D811D08950E943F
:103F7000CA1F0C943B200E942D2038F00E94342050
:103F800020F0952311F00C9424200C942A20112465
:103F90000C946F200E944C2070F3959FC1F3950FF5
:103FA00050E0551F629FF001729FBB27F00DB11DBD
:103FB000639FAA27F00DB11DAA1F649F6627B00D4D
:103FC000A11D661F829F2227B00DA11D621F739F36
:103FD000B00DA11D621F839FA00D611D221F749F44
:103FE0003327A00D611D231F849F600D211D822F8B
:103FF000762F6A2F11249F5750409AF0F1F08823B2
:104000004AF0EE0FFF1FBB1F661F771F881F9150DE
:104010005040A9F79E3F510580F00C9424200C9449
:104020006F205F3FE4F3983ED4F3869577956795CC
:10403000B795F795E7959F5FC1F7FE2B880F911D08
:104040009695879597F9089597F99F6780E870E0AE
:1040500060E008959FEF80EC089500240A941616FE
:10406000170618060906089500240A941216130666
:10407000140605060895092E0394000C11F48823F4
:1040800052F0BB0F40F4BF2B11F460FF04C06F5F10
:104090007F4F8F4F9F4F089557FD9058440F551FE6
:1040A00059F05F3F71F04795880F97FB991F61F0BA
:1040B0009F3F79F087950895121613061406551F31
:1040C000F2CF4695F1DF08C0161617061806991F9D
:1040D000F1CF86957105610508940895E894BB2792
:1040E00066277727CB0197F90895262FF999FECFF8
:1040F0001FBA92BD81BD20BD0FB6F894FA9AF99A05
:104100000FBE01960895052E97FB1EF400940E94A1
:104110009A2057FD07D00E94A22007FC03D04EF43E
:104120000C949A2050954095309521953F4F4F4FD4
:104130005F4F089590958095709561957F4F8F4F53
:104140009F4F0895A1E21A2EAA1BBB1BFD010DC0B3
:10415000AA1FBB1FEE1FFF1FA217B307E407F50737
:1041600020F0A21BB30BE40BF50B661F771F881F13
:10417000991F1A9469F760957095809590959B01A9
:10418000AC01BD01CF010895A29FB001B39FC00152
:10419000A39F700D811D1124911DB29F700D811D73
:1041A0001124911D08955058BB27AA270E94EB2087
:1041B0000C943B200E942D2038F00E94342020F0E7
:1041C00039F49F3F19F426F40C942A200EF4E0955C
:1041D000E7FB0C942420E92F0E944C2058F3BA17D7
:1041E000620773078407950720F079F4A6F50C940D
:1041F0006E200EF4E0950B2EBA2FA02D0B01B90105
:1042000090010C01CA01A0011124FF27591B99F04C
:10421000593F50F4503E68F11A16F040A22F232F58
:10422000342F4427585FF3CF469537952795A795A8
:10423000F0405395C9F77EF41F16BA0B620B730B4F
:10424000840BBAF09150A1F0FF0FBB1F661F771FC0
:10425000881FC2F70EC0BA0F621F731F841F48F475
:10426000879577956795B795F7959E3F08F0B0CFFE
:104270009395880F08F09927EE0F979587950895E5
:104280000E9454210C943B200E94342058F00E943C
:104290002D2040F029F45F3F29F00C942420511187
:1042A0000C946F200C942A200E944C2068F39923D0
:1042B000B1F3552391F3951B550BBB27AA27621722
:1042C0007307840738F09F5F5F4F220F331F441F2F
:1042D000AA1FA9F335D00E2E3AF0E0E832D0915063
:1042E0005040E695001CCAF72BD0FE2F29D0660F50
:1042F000771F881FBB1F261737074807AB07B0E893
:1043000009F0BB0B802DBF01FF2793585F4F3AF098
:104310009E3F510578F00C9424200C946F205F3F51
:10432000E4F3983ED4F3869577956795B795F7951E
:104330009F5FC9F7880F911D9695879597F9089506
:10434000E1E0660F771F881FBB1F621773078407A2
:10435000BA0720F0621B730B840BBA0BEE1F88F7B1
:10436000E09508950E94542088F09F5798F0B92F47
:104370009927B751B0F0E1F0660F771F881F991F9A
:104380001AF0BA95C9F714C0B13091F00E946E20AE
:10439000B1E008950C946E20672F782F8827B85FBE
:1043A00039F0B93FCCF3869577956795B395D9F7F2
:1043B0003EF490958095709561957F4F8F4F9F4FFC
:1043C00008950E94931F08F48FEF089516F00C943F
:1043D000C5220C942A2068940C9424200E94542016
:1043E000A8F39923C1F3AEF3DF93CF931F930F93F9
:1043F000FF92C92FDD2788232AF02197660F771FA8
:10440000881FDAF720E030E040E85FEB9FE388396F
:1044100020F0803E38F021968F770E94D420E4EE81
:10442000F0E004C00E94D420E1E1F1E00E94D32238
:104430008B01BE01EC01FB2E6F5771097595771F3B
:10444000880B990B0E94581F28E132E741E35FE394
:104450000E94CA1FAF2D9801AE01FF900F911F91CE
:10446000CF91DF910E94EB200C943B20FA01EE0FDC
:10447000FF1F309621053105A1F16115710561F429
:104480008038BFE39B0749F168949038810561F05B
:104490008038BFEF9B0741F099234AF5FF3FE105C4
:1044A0003105210519F1E8940894E795D901AA236B
:1044B00029F4AB2FBE2FF85FD0F310C0FF5F70F46C
:1044C000A695E0F7F73950F019F0FF3A38F49F77E6
:1044D0009F930DD00F9007FC9058089546F00C94D0
:1044E0002A2060E070E080E89FE308954FE79F771F
:1044F0005F934F933F932F930E94EE212F913F9113
:104500004F915F910E94B71F0C9493220E94931FBA
:10451000880B990B089529F416F00C9424200C9420
:104520006E200C942A200E945420A8F39638A0F7FD
:1045300007F80F92E8942BE33AEA48EB5FE70E9412
:10454000CD1F0F920F920F924DB75EB70F920E9440
:104550003C23EEE3F1E00E94D3224F915F91EF9173
:10456000FF91E595EE1FFF1F49F0FE57E0684427D5
:10457000EE0F441FFA95E1F74195550B0E94062373
:104580000F9007FE0C94FA2208959F3F31F091504E
:1045900020F4879577956795B795880F911D969527
:1045A000879597F90895DF93CF931F930F93FF9209
:1045B000EF92DF927B018C01689406C0DA2EEF0146
:1045C0000E94CA1FFE01E894A5912591359145915D
:1045D0005591A6F3EF010E94EB20FE019701A8017F
:1045E000DA9469F7DF90EF90FF900F911F91CF91D0
:1045F000DF9108959B01AC0160E070E080E89FE3EB
:104600000C9440210C9424200C94C5220E94542028
:10461000D8F39923C9F3940F511DA3F3915050403F
:1046200094F059F0882332F0660F771F881F91505D
:104630005040C1F79E3F51052CF7880F911D96956C
:10464000879597F908955F3FACF0983E9CF0BB27A3
:10465000869577956795B79508F4B1609395C1F7FE
:10466000BB0F58F711F460FFE8CF6F5F7F4F8F4F9C
:104670009F4FE3CF0C946F20FA01DC01AA0FBB1F00
:104680009B01AC01BF5728F42227332744275078D9
:1046900020C0B75190F4AB2F00244695379527954D
:1046A000011CA395D2F3002071F0220F331F441F89
:1046B000B395DAF30ED00C94D32061307105A0E8E5
:1046C0008A07B94630F49B01AC0166277727882713
:1046D0009078309621F0208331834283538308956C
:1046E00097FB072E16F4009407D077FD09D00E949F
:1046F000932307FC05D03EF4909581959F4F089534
:10470000709561957F4F0895EE0FFF1F881F8BBF37
:104710000790F691E02D19940E94C420B7FF0895E8
:10472000821B930B0895AA1BBB1B51E107C0AA1F54
:10473000BB1FA617B70710F0A61BB70B881F991F42
:104740005A95A9F780959095BC01CD0108950F93D6
:104750001F93CF93DF938230910510F482E090E0B5
:10476000E0911406F091150630E020E0B0E0A0E002
:10477000309799F42115310509F44AC0281B390BEB
:1047800024303105D8F58A819B816115710589F145
:10479000FB0193838283FE0111C04081518102811C
:1047A000138148175907E0F04817590799F41097F3
:1047B00061F012960C93129713961C933296CF01C8
:1047C000DF91CF911F910F910895009314061093DC
:1047D0001506F4CF2115310551F04217530738F073
:1047E000A901DB019A01BD01DF01F801C1CFEF0191
:1047F000F9CF9093150680931406CDCFFE01E20FFA
:10480000F31F819391932250310939832883D7CFA5
:104810002091120630911306232B41F420910A04B3
:1048200030910B0430931306209312062091080454
:10483000309109042115310541F42DB73EB740915F
:104840000C0450910D04241B350BE0911206F091DD
:104850001306E217F307A0F42E1B3F0B28173907A6
:1048600078F0AC014E5F5F4F2417350748F04E0FCC
:104870005F1F5093130640931206819391939FCF2D
:10488000F0E0E0E09CCFCF93DF930097E9F0FC01EC
:10489000329713821282A0911406B0911506ED0191
:1048A00030E020E01097A1F420813181820F931F26
:1048B00020911206309113062817390709F061C0BC
:1048C000F0931306E0931206DF91CF910895EA0169
:1048D000CE17DF07E8F54A815B819E01411551053E
:1048E000B1F7E901FB83EA8349915991C40FD51FC0
:1048F000EC17FD0761F4808191810296840F951F6A
:10490000E90199838883828193819B838A83F0E084
:10491000E0E012968D919C9113970097B9F52D9137
:104920003C911197CD010296820F931F20911206A0
:10493000309113062817390739F6309751F5109240
:10494000150610921406B0931306A0931206BCCF5E
:10495000D383C28340815181840F951FC817D90723
:1049600061F44E5F5F4F88819981480F591F5183D1
:1049700040838A819B81938382832115310509F0CD
:10498000B0CFF0931506E09314069ECFFD01DC0135
:10499000C0CF13821282D7CF4F925F926F927F92D5
:1049A0008F929F92AF92BF92CF92DF92EF92FF923F
:1049B0000F931F93CF93DF938C01009799F4CB0152
:1049C000DF91CF911F910F91FF90EF90DF90CF90EB
:1049D000BF90AF909F908F907F906F905F904F901F
:1049E0000C94A723FC01E60FF71F9C01225031090C
:1049F000E217F30708F4AEC0D901CD91DC9111970D
:104A0000C617D70720F1C530D10578F0CE0104973D
:104A10008617970750F0C61BD70B2297C193D193E7
:104A20006D937C93CF010E944324C801DF91CF9105
:104A30001F910F91FF90EF90DF90CF90BF90AF90BC
:104A40009F908F907F906F905F904F9008955B0143
:104A5000AC1ABD0A4C018C0E9D1EA0911406B0919B
:104A60001506512C412CF12CE12C109731F5809139
:104A70001206909113068815990509F05CC0461638
:104A8000570608F058C080910804909109040097D7
:104A900041F48DB79EB740910C0450910D04841BD6
:104AA000950BE817F90708F055C0F0931306E0934B
:104AB0001206F90171836083B8CF8D919C91119793
:104AC00012966C90129713967C901397A815B905BF
:104AD00059F56C0142E0C40ED11CCA14DB0420F16C
:104AE000AC014A195B09DA011296159780F06282CF
:104AF000738251834083D9016D937C93E114F10457
:104B000071F0D7011396FC93EE9312978ECF2296F5
:104B10008C0F9D1FF90191838083F301EFCFF093F8
:104B20001506E093140681CF4816590608F42C01A7
:104B30007D01D3019ACFCB010E94A7237C0100976E
:104B400049F0AE01B8010E94B225C8010E94432479
:104B500087016BCF10E000E068CF81E090E0F8942F
:104B60000C94C225FB01DC0102C001900D92415062
:104B70005040D8F70895FB01DC0101900D92002010
:084B8000E1F70895F894FFCF5E
:104B8800170517051705170517051705170517053D
:104B9800000000000000000000000000000000000D
:104BA80000000000000000000000000000000000FD
:104BB800000000000000C0E0F0F8FCFCFEFFFCE094
:104BC80000000000000000000000000000000000DD
:104BD80000000000000000000000000000000000CD
:104BE80000000000000000000000000000000000BD
:104BF8000000000000F8F8F8F8F8F8F8F8F8F8F805
:104C0800F8F0F0E0E0C080C0FCFFFFFFFF7F3F7FCF
:104C1800FFFFFFFFFF000000000000000000000091
:104C2800000000000000000000000000000000007C
:104C3800000000000000000000000000000000006C
:104C4800000000000000000000000F1F3F7FFFFF72
:104C5800FFFFFFFFFFFFE7C7C7878F9F9FFFFFFF8C
:104C6800C1C0E0FCFFFFFFFFFFFCFCFCFCFEFEFEFA
:104C7800FCFCF8F8F0E0C0C00000000000000000F4
:104C8800000000000000000000000000000000001C
:104C9800000000000000000000000000000000000C
:104CA8000080C0E0F1FBFFFFFFFFFF7F1F0F0F87B2
:104CB800E7FFFFFF1F1F3FF9F8F8F8F8F8F8FDFFC6
:104CC800FFFFFFFFFFFFFFFF7F3F0F07010000000F
:104CD80000000000000000000000000000000000CC
:104CE80000000000000000000000000000000000BC
:104CF800000000F0FEFFFFFFFFFFFFFFFFFFFFFECA
:104D08007E3F3F0F1FFFFFFFFCF0E0F1FFFFFFFFBB
:104D1800FFFCF00101010101010101000000000098
:104D2800000000000000000000000000000000007B
:104D3800000000000000000000000000000000006B
:104D48000000000000000003030303030303030142
:104D580001010100000000000000030F1F3F7F7FDA
:104D6800FFFFFFFF7F7F1F0300000000000000001F
:104D7800000000000000000000000000000000002B
:104D8800000000000000000000001606800000007F
:104D98000000AE0518054505FB05760554056805B0
:104DA80000000000450D18059E109D109A0ABC08C9
:104DB800EA0FC20FDE0FD20FF10FBC080B0B890AE6
:104DC800890F500F0B0FEE0E760E170E0D0A006EA0
:104DD800616E00696E66006F76660048756D656481
:104DE80061643A2000206C757800486179206C6C09
:104DF80075766961004E6F20686179206C6C7576F4
:064E08006961002F0000AB
:00000001FF
