:100000000C94E1010C9412020C9412020C94120252
:100010000C9412020C9412020C9412020C94120210
:100020000C9412020C9412020C9412020C94120200
:100030000C9412020C9412020C9412020C941202F0
:100040000C9412020C9412020C9412020C941202E0
:100050000C9412020C9412020C9412020C942D05B2
:100060000C9412020C94F7040C94CD040C9412021C
:100070000C9412020C9412020C9412020C941202B0
:100080000C9412020C9412020C9412020C941202A0
:100090000C9412020C9412020C9412020C94120290
:1000A0000C9412020C9412020C9412020C94120280
:1000B0000C9412020C9412020C9412020C94120270
:1000C0000C9412020C9412020C9412020C94120260
:1000D0000C9412020C9412020C9412020C94120250
:1000E0000C94120208000000BE922449123EABAAF2
:1000F000AA2ABECDCCCC4C3E00000080BEABAAAA42
:10010000AA3E00000000BF000000803F0000000089
:1001100000084178D3BB4387D1133D190E3CC3BDC2
:100120004282AD2B3E68EC8276BED98FE1A93E4C6F
:1001300080EFFFBE01C4FF7F3F00000000000C9471
:10014000D5030C94E6020C94BD030C94AE020C94FF
:10015000A8030C94C1030C9477050C94D9030C9458
:1001600050020C94AC030C94E2030C94DD030C9449
:10017000A2030C9445020C94B4030C947D020C94DD
:1001800033030C94E3030C94E7030C94A0020C9447
:100190008C020C94B0030C94B7030C94CB030C9416
:1001A000C7030C94CF0300407A10F35A00A0724E9C
:1001B00018090010A5D4E80000E87648170000E40C
:1001C0000B54020000CA9A3B000000E1F505000054
:1001D00080969800000040420F000000A0860100B9
:1001E0000000102700000000E80300000000640089
:1001F000000000000A0000000000010000000000F4
:100200002C76D888DC674F0823DFC1DFAE59E1B117
:10021000B796E5E3E453C63AE651997696E8E6C226
:100220008426EB898C9B62ED407C6FFCEFBC9C9F2D
:1002300040F2BAA56FA5F490055A2AF75C936B6C4F
:10024000F9676DC11BFCE0E40D47FEF520E6B50043
:10025000D0ED902E0300943577050080841E0800B1
:1002600000204E0A000000C80C333333330F986E61
:1002700012831141EF8D2114893BE65516CFFEE61E
:10028000DB18D1844B381BF77C1D901DA4BBE424E4
:10029000203284725E228100C9F124ECA1E53D2761
:1002A000000020002300260029002C002F0032002F
:1002B0000001000003010601090100000A0B020908
:1002C0000C0D0E08070304010000000000000000F0
:1002D000000000000000000000000000000000001E
:1002E00000000000000012111000000000000000DB
:1002F00000000000000000000000000000000000FE
:1003000000002200250028002B002E0031003400C0
:1003100002010000050108010B010000210024007A
:1003200027002A002D0030003300010100000401E5
:1003300007010A0105050505070508080808020266
:1003400002020A0A0808040404040101010101016F
:1003500001010303030303030303040707070C0C52
:100360000C0C0C0C0C0C0202020206060606060619
:1003700006060B0B0B0B0B0B0B0B010210202008BE
:1003800008102040102040800201020108040201F0
:10039000010204081020408080402010080402015F
:1003A00080040201804020100804020108040201B8
:1003B000010204081020408001020408102040803F
:1003C000770511241FBECFEFD1E2DEBFCDBF00E025
:1003D0000CBF22E0AEE1B2E001C01D92AA3FB2071D
:1003E000E1F712E0A0E0B2E0EAE7F3E200E00BBFE1
:1003F00002C007900D92AE31B107D9F711E0C1EEFE
:10040000D1E000E006C021970109802FFE010E9483
:100410009D0FC03ED10780E00807A9F70E943D0666
:100420000C94BB110C9400003FB7F8948091230208
:1004300090912402A0912502B091260226B5A89B96
:1004400005C02F3F19F00196A11DB11D3FBFBA2F66
:10045000A92F982F8827BC01CD01620F711D811D26
:10046000911D42E0660F771F881F991F4A95D1F7AB
:1004700008952FB7F89460911F0270912002809127
:100480002102909122022FBF08950E94390228EE86
:1004900033E040E050E00E947B0FCA01B9010895AB
:1004A000AF92BF92CF92DF92EF92FF920F931F9382
:1004B000CF93DF936C017B018B01040F151FEB01C0
:1004C0005E01AE18BF08C017D10759F06991D60177
:1004D000ED91FC910190F081E02DC6011995892BD9
:1004E00079F7C501DF91CF911F910F91FF90EF90A8
:1004F000DF90CF90BF90AF900895FC01538D448D55
:10050000252F30E0842F90E0821B930B541710F0BE
:10051000CF96089501970895FC01918D828D9817CB
:1005200061F0A28DAE0FBF2FB11D5D968C91928DA3
:100530009F5F9F73928F90E008958FEF9FEF0895D4
:10054000FC01918D828D981731F0828DE80FF11D9D
:10055000858D90E008958FEF9FEF0895FC01918DB8
:10056000228D892F90E0805C9F4F821B91098F73B1
:100570009927089589E292E00E94AE0221E0892B3A
:1005800009F420E0822F0895FC01A48DA80FB92F53
:10059000B11DA35ABF4F2C91848D90E001968F73AB
:1005A0009927848FA689B7892C93A089B1898C91CA
:1005B000837080648C93938D848D981306C0028819
:1005C000F389E02D80818F7D80830895EF92FF92E3
:1005D0000F931F93CF93DF93EC0181E0888F9B8D66
:1005E0008C8D98131AC0E889F989808185FF15C020
:1005F0009FB7F894EE89FF896083E889F989808143
:100600008370806480839FBF81E090E0DF91CF9111
:100610001F910F91FF90EF900895F62E0B8D10E033
:100620000F5F1F4F0F731127E02E8C8D8E110CC0A2
:100630000FB607FCFACFE889F989808185FFF5CFED
:10064000CE010E94C402F1CFEB8DEC0FFD2FF11D06
:10065000E35AFF4FF0829FB7F8940B8FEA89FB892A
:1006600080818062CFCFCF93DF93EC01888D882388
:10067000B9F0AA89BB89E889F9898C9185FD03C005
:10068000808186FD0DC00FB607FCF7CF8C9185FFEA
:10069000F2CF808185FFEDCFCE010E94C402E9CF69
:1006A000DF91CF91089580E090E0892B29F00E949E
:1006B000BA0281110E94000080E090E0892B49F08D
:1006C00080E090E0892B29F00E94000081110E94B7
:1006D000000080E090E0892B49F080E090E0892BD9
:1006E00029F00E94000081110E94000080E090E04B
:1006F000892B49F080E090E0892B29F00E940000CE
:1007000081110C94000008958150823108F05AC084
:10071000E82FF0E08827E057FC4F8F4F0C949D0F97
:10072000B003B403A203A803AC03E203B703BD0301
:10073000C103C703CB03CF03D503D903E203DD0312
:10074000E303E703809180008F7780938000089512
:10075000809180008F7DF9CF80918000877FF5CFD9
:1007600084B58F7784BD089584B58F7DFBCF80914C
:10077000B0008F778093B00008958091B0008F7D96
:10078000F9CF809190008F778093900008958091A9
:1007900090008F7DF9CF80919000877FF5CF809179
:1007A000A0008F778093A00008958091A0008F7D96
:1007B000F9CF8091A000877FF5CF809120018F77BE
:1007C000809320010895809120018F7DF9CF809141
:1007D0002001877FF5CF90917B00977F90937B00DE
:1007E0008653806480937C0080917A00806480933B
:1007F0007A0080917A0086FDFCCF809178009091FC
:10080000790008950F931F93CF93DF93EC018881B4
:100810009981009759F02A813B812617370730F0DC
:1008200081E0DF91CF911F910F9108958B016F5F50
:100830007F4F0E94CA10009759F0998388831B83C9
:100840000A832C813D81232B59F7FC011082E8CFCC
:1008500080E0E7CFCF93DF93EC0188819981009707
:1008600011F00E944110198218821D821C821B8285
:100870001A82DF91CF910895FC01808191810097C8
:1008800011F00C9441100895CF92DF92EF92FF92F5
:100890000F931F93CF93DF93CDB7DEB7A1970FB61A
:1008A000F894DEBF0FBECDBF7C01CB01BA01F701CA
:1008B00011821082138212821582148242E0420F4A
:1008C0008E010F5F1F4F0E94700A6C01009771F03C
:1008D000FC0101900020E9F731978F01081B190BEB
:1008E000B801C7010E940204811112C0C7010E9411
:1008F0002A04A1960FB6F894DEBF0FBECDBFDF91DC
:10090000CF911F910F91FF90EF90DF90CF900895BE
:10091000F70115830483B601808191810E94B4118F
:10092000E8CFEF92FF920F931F93CF93DF93EC01E9
:10093000198218821B821A821D821C8286179707D1
:1009400019F1FB010081118101151105E9F0E48025
:10095000F580B7010E940204811109C0CE01DF9128
:10096000CF911F910F91FF90EF900C942A04FD827C
:10097000EC82B80188819981DF91CF911F910F910D
:10098000FF90EF900C94B411DF91CF911F910F91D4
:10099000FF90EF9008950C94DA0D1F920F920FB60E
:1009A0000F9211240BB60F922F933F934F935F93A7
:1009B0006F937F938F939F93AF93BF93EF93FF9327
:1009C00089E292E00E94C402FF91EF91BF91AF9142
:1009D0009F918F917F916F915F914F913F912F9157
:1009E0000F900BBE0F900FBE0F901F9018951F9287
:1009F0000F920FB60F9211240BB60F922F938F9375
:100A00009F93EF93FF93E0913902F0913A02808136
:100A1000E0913F02F091400282FD1DC090818091E3
:100A200042028F5F8F7320914302821741F0E09161
:100A30004202F0E0E75DFD4F958F80934202FF9107
:100A4000EF919F918F912F910F900BBE0F900FBE42
:100A50000F901F9018958081F2CF1F920F920FB6C2
:100A60000F9211242F933F938F939F93AF93BF9334
:100A700080911F0290912002A0912102B091220248
:100A800030911E0223E0230F2D3758F50196A11D4A
:100A9000B11D20931E0280931F0290932002A09309
:100AA0002102B09322028091230290912402A0910E
:100AB0002502B09126020196A11DB11D809323024B
:100AC00090932402A0932502B0932602BF91AF9188
:100AD0009F918F913F912F910F900FBE0F901F907C
:100AE000189526E8230F0296A11DB11DD2CF0F93B2
:100AF0001F93CF9310922C0210922B0288EE93E05A
:100B0000A0E0B0E080932D0290932E02A0932F02DC
:100B1000B09330028AE092E090932A0280932902F7
:100B200085EC90E0909336028093350284EC90E05F
:100B3000909338028093370280EC90E090933A02D1
:100B40008093390281EC90E090933C0280933B02C9
:100B500082EC90E090933E0280933D0286EC90E020
:100B60009093400280933F021092420210924302FF
:100B7000109244021092450205E412E01093F40230
:100B80000093F3020E9445026093EB027093EC0223
:100B90008093ED029093EE021092EF021092F00219
:100BA0001092F1021092F202C1E0C093F50210938C
:100BB000E9020093E8020E9445026093E00270930C
:100BC000E1028093E2029093E3021092E402109219
:100BD000E5021092E6021092E702C093EA02109238
:100BE000C7021092C6021092C9021092C802109257
:100BF000CB021092CA021092CC021092CD02109237
:100C0000CE021092CF021092D0021092D102109216
:100C1000D2021092D3028FEF9FEFDC018093D802B3
:100C20009093D902A093DA02B093DB021092DC0217
:100C30001092DD021092DE021092DF02EAE7F3E08A
:100C40002491E4E3F3E08491882399F090E0880F05
:100C5000991FFC01E65EFC4FA591B491FC01E050A8
:100C6000FD4F859194918FB7F894EC91E22BEC9322
:100C70008FBFCF911F910F910895CF93DF93CDB781
:100C8000DEB76C970FB6F894DEBF0FBECDBF789479
:100C900084B5826084BD84B5816084BD85B5826081
:100CA00085BD85B5816085BD80916E008160809332
:100CB0006E0010928100809181008260809381009B
:100CC00080918100816080938100809180008160AB
:100CD000809380008091B10084608093B100809106
:100CE000B00081608093B000809191008260809319
:100CF000910080919100816080939100809190009B
:100D00008160809390008091A10082608093A10017
:100D10008091A10081608093A1008091A0008160FA
:100D20008093A000809121018260809321018091B5
:100D30002101816080932101809120018160809355
:100D4000200180917A00846080937A0080917A00FB
:100D5000826080937A0080917A00816080937A002B
:100D600080917A00806880937A001092C100E091AF
:100D70003902F0913A0282E08083E0913502F091ED
:100D800036021082E0913702F09138028FEC8083B6
:100D900010924102E0913D02F0913E0286E0808394
:100DA000E0913B02F0913C02808180618083E09180
:100DB0003B02F0913C02808188608083E0913B029D
:100DC000F0913C02808180688083E0913B02F09149
:100DD0003C0280818F7D8083E0E9F3E02491EAE4A6
:100DE000F3E084918823C9F090E0880F991FFC01FB
:100DF000E65EFC4FA591B491FC01E050FD4F45919A
:100E000054913FB7F8949C91822F809598239C939E
:100E1000DA019C9189238C933FBF8091D8029091F5
:100E2000D902A091DA02B091DB02892B8A2B8B2B9D
:100E300021F41092CB021092CA028091CA029091C2
:100E4000CB028130910509F472C2029709F4EBC21A
:100E5000E0EDF2E08491E0E9F3E00491EAE4F3E00C
:100E60001491312C212C112399F081110E948403BB
:100E7000E12FF0E0EE0FFF1FE056FD4FA591B4917A
:100E80008C91082391E080E009F490E0292E382E1F
:100E900086E30E94EB037C0188E30E94EB038C0154
:100EA000B701FF0C880B990B0E94E10C20E030E0A9
:100EB00040E85AE30E941C0D20E030E040EA50E494
:100EC0000E941C0D2B013C0120E030E44CE156E473
:100ED0000E941C0D6B017C01A301920160E070E097
:100EE00080EA90E40E94E80D9B01AC01C701B601C5
:100EF0000E94550E4B015C010E94FE0E6B017C01AD
:100F000022EC3BE849EB51E30E941C0DA70196013E
:100F10000E941C0DA70196010E941C0D698F7A8FFB
:100F20008B8F9C8F22EB3FEF46E959E3C701B60157
:100F30000E941C0D25EB3EEC46E35AE30E94E90DAE
:100F40009B01AC01698D7A8D8B8D9C8D0E94E90D82
:100F50009B01AC0160E070E080E89FE30E94550EC9
:100F60006B017C01A3019201C301B2010E941C0D1F
:100F70002B013C0120E030E040E250E4C501B40127
:100F80000E941C0D9B01AC01C301B2010E94550ED1
:100F900020E030E04AE754E40E941C0D9B01AC01C4
:100FA000C701B6010E94E80D23E333E948E853E4A2
:100FB0000E94E80D4B015C01B801110F880B990BE1
:100FC0000E94E10C20E030E040E85AE30E941C0D52
:100FD00020E030E040EA50E40E941C0D20E030E0C8
:100FE00040EC50E40E941C0D6B017C014090EF022C
:100FF0005090F0026090F1027090F2028091F50240
:10100000882309F458C2E091F302F091F402199593
:101010000091EB021091EC022091ED023091EE0272
:10102000DC01CB01801B910BA20BB30B480E591EA8
:101030006A1E7B1EFCE24F16F1E05F06610471043C
:1010400008F479C00091270210912802C501B4016B
:101050000E94C70E662EC701B6010E94C70E762EEB
:10106000011580E1180708F42AC210E000E060E0F2
:10107000C8010E94CB040F5F1F4F011590E11907B3
:10108000B1F71092280210922702662D90E080E0BE
:101090000E94CB048091270290912802049690939D
:1010A0002802809327026AE00E94CB0480912702E5
:1010B00090912802049690932802809327026AE078
:1010C0000E94CB048091270290912802049690936D
:1010D000280280932702672D0E94CB04809127026B
:1010E000909128020496909328028093270261E051
:1010F0000E94CB048091270290912802049690933D
:10110000280280932702E091F302F091F4021995EE
:101110006093EB027093EC028093ED029093EE02E9
:101120001092EF021092F0021092F1021092F2026D
:10113000A1E0A093F502B1E02B16310409F0F4C050
:1011400084E190E0A0E0B0E08093CC029093CD02E7
:10115000A093CE02B093CF028093D0029093D1029D
:10116000A093D202B093D3021092D4021092D5026F
:101170001092D6021092D7028FEF9FEFDC0180937E
:10118000D8029093D902A093DA02B093DB02809147
:10119000CA029091CB02892B71F43092CB0220923B
:1011A000CA020E9439026093DC027093DD028093D0
:1011B000DE029093DF024090E4025090E5026090DE
:1011C000E6027090E7028091EA02882309F47AC16E
:1011D000E091E802F091E90219950091E002109186
:1011E000E1022091E2023091E302DC01CB01801B9D
:1011F000910BA20BB30B480E591E6A1E7B1E96E084
:10120000491651046104710408F48EC021E0B5014F
:10121000A401CE0143960E94440423E0B701A60135
:10122000CE010D960E944404BE016D5E7F4FCE013B
:1012300001960E9491040D811E810F5F1F4FB8011E
:10124000CE0101960E940204882309F43FC129813E
:101250003A818D819E8168E172E0820F931F0E9426
:10126000B4111E830D83ED84FE84E114F10409F4AE
:1012700032C109891A8901151105B9F08D819E8144
:10128000080F191FB801CE0101960E94020488239D
:1012900009F421C129813A818D819E81B701820F94
:1012A000931F0E94B4111E830D83BE016F5F7F4F99
:1012B000CE0107960E949104CE0101960E943C0443
:1012C0004B855C856F81788589E292E00E945002AF
:1012D00042E050E06AE172E089E292E00E9450024E
:1012E000E091E802F091E90219956093E0027093B1
:1012F000E1028093E2029093E3021092E4021092E2
:10130000E5021092E6021092E702A1E0A093EA0241
:10131000CE0107960E943C04CE010D960E943C042B
:10132000CE0143960E943C040E94530376CD0E9456
:1013300039020091DC021091DD022091DE02309131
:10134000DF02601B710B820B930B0091D402109192
:10135000D5022091D6023091D7026017710782071B
:10136000930708F475CDE2E0F0E0F093CB02E09350
:10137000CA020091C8021091C90281E090E00115F3
:10138000110511F090E080E09093C9028093C802AB
:101390002091C6023091C7023327F901E654FD4F70
:1013A0008491F901E658FC4FE490F901EC5CFC4FA4
:1013B000F490FF20A9F081110E948403EF2DF0E04A
:1013C000EE0FFF1FE050FD4FA591B4918FB7F89439
:1013D000EC91012B09F46DC0E094EE22EC928FBFEA
:1013E0000E9439026093DC027093DD028093DE027A
:1013F0009093DF028091D8029091D902A091DA02F5
:10140000B091DB020097A105B10509F421CD019748
:10141000A109B1098093D8029093D902A093DA026E
:10142000B093DB0215CD8091C8029091C902892B3F
:1014300021F18091C8029091C902019709F008CD6D
:101440000E9439020091DC021091DD022091DE023F
:101450003091DF02601B710B820B930B0091CC0269
:101460001091CD022091CE023091CF02601771070A
:101470008207930708F07DCFEBCC0E9439020091E0
:10148000DC021091DD022091DE023091DF02601B50
:10149000710B820B930B0091D0021091D10220911D
:1014A000D2023091D302601771078207930708F2C6
:1014B00060CFEE2A93CF80E090E0DC01B7CD662DBF
:1014C000C801E6CD80E090E0DC0195CECE0101962A
:1014D0000E942A04C8CECE0101960E942A04E5CEBD
:1014E000EF920F931F93CF93DF93E80134E047FD12
:1014F00034E1042E000C550B57FF03C05195419564
:101500005109E32E022F242FAE010E948E0ACE0134
:10151000DF91CF911F910F91EF9008958F929F923D
:10152000AF92BF92CF92DF92EF92FF920F931F93F1
:10153000CF93DF9300D000D000D0CDB7DEB76A01E3
:10154000F22EB02E102FFBE3AF2EA01608F41BE3F3
:101550001F5F012F27E0AE014F5F5F4F0E94070C16
:10156000BC018981982F9970913009F44EC09BE29B
:10157000E1FC04C09E2D9170E0FC49C05E2D5071CD
:10158000E82FE87083FF55C084E0911101C083E02B
:10159000EF2DE81B8F1508F0E0E0D6018E2F20E23A
:1015A0005523C9F1992329F0D6019C93C6010196D0
:1015B0006C0196012D5F3F4FE2FE33C08EE4D601F1
:1015C0008C9391E411969C93119712968C93D90168
:1015D0008E2F90E281112AC0E20FF32FF11D1082AD
:1015E0008EEF9FEF29960FB6F894DEBF0FBECDBFEA
:1015F000DF91CF911F910F91FF90EF90DF90CF90EF
:10160000BF90AF909F908F9008959DE2B7CF90E2EA
:10161000B5CF2D9381508111FCCFCE0ED11CE0E0CF
:10162000C1CF8EE6D6018C9391E6CCCF9D938150AD
:10163000D1CF482F447082FF3DC084E0911101C09A
:1016400083E08F1510F4EF2DE81BD6018E2F20E2DA
:10165000552309F1992329F0D6019C93C6010196DF
:101660006C0196012D5F3F4FE2FE1BC089E4D6015D
:101670008C938EE411968C93119786E412968C933A
:10168000D9018E2F90E2882309F4A6CF9D93815033
:10169000FACF2D9381508111FCCFCE0ED11CE0E00A
:1016A000D9CF89E6D6018C938EE611968C9311974B
:1016B00086E6E4CF9B0177FF02C030E020E0A1E0A6
:1016C000B0E0911102C0B0E0A0E0F9013196AE0F98
:1016D000BF1F8B2C912CBB2009F461C05401EFEF8C
:1016E000AE1ABE0AAA0DBB1DFA161B0619F014F09D
:1016F0004F2D4A1B511188C0E3FC59C07601A42F1D
:10170000B0E2A1114FC0C40ED11C992309F45BC0F3
:1017100040E0D6011196F60190836D01552309F43E
:1017200048C0012F060F9A81582F507184FF03C0C3
:10173000913309F4015010160CF047C0093008F03D
:1017400008E0EEE2FE2E5B01A01AB108850191943B
:10175000819491082F3F320729F4D601FC92F601BB
:1017600031966F016217730794F1021713077CF526
:10177000DB01A21BB30BAA24A394B12CAC0EBD1E9B
:10178000AA0DBB1D11968C9121503109D6011196DD
:1017900028153905F4F0F60180836D01DBCFB12CFB
:1017A000A12CA0CFF701B1937F01A150AACF911135
:1017B000B0CFD601942F50E302C05D9391509111A8
:1017C000FCCFC40ED11C40E0ACCF01E0BACF80E327
:1017D000DBCF6217730731F4963388F4953311F435
:1017E000552369F0F6018083FD01842F90E2811179
:1017F00008C0A40FB11D1C9290E080E0F3CE81E3FD
:10180000F1CF91938150F3CF911183CF8ACF2830BC
:1018100008F027E03327DA01990F311D87FD916029
:1018200000966105710539F432602E5F3D9330E317
:101830002A95E1F708959F3F30F0803871056105E2
:1018400009F03C5F3C5F3D93913008F08068911D4A
:10185000DF93CF931F930F93FF92EF92192F987FEF
:101860009695E92F96959695E90FFF27E050FE4F44
:1018700099273327EE24FF24A701E7010590089458
:10188000079428F4360FE71EF81E491F511D660FF6
:10189000771F881F991F0694A1F70590079428F4D5
:1018A000E70EF81E491F561FC11D770F881F991F8D
:1018B000661F0694A1F70590079428F4F80E491FB7
:1018C000561FC71FD11D880F991F661F771F0694CB
:1018D000A1F70590079420F4490F561FC71FD81F82
:1018E000990F661F771F881F0694A9F7849110959A
:1018F000177041F0D695C79557954795F794E7949B
:101900001A95C1F7E6EAF1E06894159015913591C2
:101910006591959105907FE27395E118F10A430B6B
:10192000560BC90BD009C0F7E10CF11E431F561F1F
:10193000C91FD01D7EF4703311F48A95E6CFE89468
:10194000015030F0080F0AF40027021708F4202F86
:101950002395022F7A3328F079E37D932A95E9F7CE
:1019600010C07D932A9589F60694979567953795CB
:1019700017951794E118F10A430B560BC90BD009C0
:1019800098F023957E9173957A3308F070E37C93F9
:101990002013B8F77E9170617D9330F0839571E3E9
:1019A0007D9370E32A95E1F71124EF90FF900F915A
:1019B0001F91CF91DF91992787FD90950895E89425
:1019C00009C097FB3EF490958095709561957F4F87
:1019D0008F4F9F4F9923A9F0F92F96E9BB27939535
:1019E000F695879577956795B795F111F8CFFAF445
:1019F000BB0F11F460FF1BC06F5F7F4F8F4F9F4F76
:101A000016C0882311F096E911C0772321F09EE8D3
:101A1000872F762F05C0662371F096E8862F70E039
:101A200060E02AF09A95660F771F881FDAF7880F13
:101A30009695879597F908950E942F0D0C94A00D07
:101A40000E94920D38F00E94990D20F0952311F01C
:101A50000C94890D0C948F0D11240C94D40D0E94BC
:101A6000B10D70F3959FC1F3950F50E0551F629F24
:101A7000F001729FBB27F00DB11D639FAA27F00DE7
:101A8000B11DAA1F649F6627B00DA11D661F829F0E
:101A90002227B00DA11D621F739FB00DA11D621FF3
:101AA000839FA00D611D221F749F3327A00D611D10
:101AB000231F849F600D211D822F762F6A2F1124F2
:101AC0009F5750409AF0F1F088234AF0EE0FFF1F25
:101AD000BB1F661F771F881F91505040A9F79E3F7C
:101AE000510580F00C94890D0C94D40D5F3FE4F304
:101AF000983ED4F3869577956795B795F795E795D2
:101B00009F5FC1F7FE2B880F911D9695879597F9DA
:101B1000089597F99F6780E870E060E008959FEF6F
:101B200080EC089500240A94161617061806090674
:101B3000089500240A941216130614060506089543
:101B4000092E0394000C11F4882352F0BB0F40F4CB
:101B5000BF2B11F460FF04C06F5F7F4F8F4F9F4F0B
:101B6000089557FD9058440F551F59F05F3F71F08D
:101B70004795880F97FB991F61F09F3F79F08795F4
:101B80000895121613061406551FF2CF4695F1DF7D
:101B900008C0161617061806991FF1CF869571050D
:101BA000610508940895E894BB2766277727CB0141
:101BB00097F90895262FF999FECF1FBA92BD81BDDE
:101BC00020BD0FB6F894FA9AF99A0FBE01960895BF
:101BD0005058BB27AA270E94000E0C94A00D0E940B
:101BE000920D38F00E94990D20F039F49F3F19F4BE
:101BF00026F40C948F0D0EF4E095E7FB0C94890D00
:101C0000E92F0E94B10D58F3BA17620773078407D2
:101C1000950720F079F4A6F50C94D30D0EF4E09519
:101C20000B2EBA2FA02D0B01B90190010C01CA0196
:101C3000A0011124FF27591B99F0593F50F4503E41
:101C400068F11A16F040A22F232F342F4427585F33
:101C5000F3CF469537952795A795F0405395C9F74B
:101C60007EF41F16BA0B620B730B840BBAF0915003
:101C7000A1F0FF0FBB1F661F771F881FC2F70EC0A2
:101C8000BA0F621F731F841F48F487957795679575
:101C9000B795F7959E3F08F0B0CF9395880F08F061
:101CA0009927EE0F9795879508950E94690E0C94D9
:101CB000A00D0E94990D58F00E94920D40F029F459
:101CC0005F3F29F00C94890D51110C94D40D0C94A4
:101CD0008F0D0E94B10D68F39923B1F3552391F351
:101CE000951B550BBB27AA2762177307840738F08B
:101CF0009F5F5F4F220F331F441FAA1FA9F335D0E8
:101D00000E2E3AF0E0E832D091505040E695001C9B
:101D1000CAF72BD0FE2F29D0660F771F881FBB1F55
:101D2000261737074807AB07B0E809F0BB0B802D33
:101D3000BF01FF2793585F4F3AF09E3F510578F05F
:101D40000C94890D0C94D40D5F3FE4F3983ED4F3CA
:101D5000869577956795B795F7959F5FC9F7880F33
:101D6000911D9695879597F90895E1E0660F771F85
:101D7000881FBB1F621773078407BA0720F0621B16
:101D8000730B840BBA0BEE1F88F7E09508950E9441
:101D9000B90D88F09F5798F0B92F9927B751B0F037
:101DA000E1F0660F771F881F991F1AF0BA95C9F7DF
:101DB00014C0B13091F00E94D30DB1E008950C949D
:101DC000D30D672F782F8827B85F39F0B93FCCF350
:101DD000869577956795B395D9F73EF4909580955C
:101DE000709561957F4F8F4F9F4F089516F00C941B
:101DF000460F0C948F0D68940C94890D0E94B90DB8
:101E0000A8F39923C1F3AEF3DF93CF931F930F93FE
:101E1000FF92C92FDD2788232AF02197660F771FAD
:101E2000881FDAF720E030E040E85FEB9FE3883975
:101E300020F0803E38F021968F770E94E90DE4EE85
:101E4000F0E004C00E94E90DE1E1F1E00E94540FCE
:101E50008B01BE01EC01FB2E6F5771097595771F41
:101E6000880B990B0E94E10C28E132E741E35FE324
:101E70000E942F0DAF2D9801AE01FF900F911F9181
:101E8000CF91DF910E94000E0C94A00D9F3F31F086
:101E9000915020F4879577956795B795880F911D98
:101EA0009695879597F90895DF93CF931F930F9396
:101EB000FF92EF92DF927B018C01689406C0DA2ECC
:101EC000EF010E942F0DFE01E894A5912591359117
:101ED00045915591A6F3EF010E94000EFE01970176
:101EE000A801DA9469F7DF90EF90FF900F911F91AE
:101EF000CF91DF910895A1E21A2EAA1BBB1BFD0111
:101F00000DC0AA1FBB1FEE1FFF1FA217B307E407D8
:101F1000F50720F0A21BB30BE40BF50B661F771F30
:101F2000881F991F1A9469F7609570958095909510
:101F30009B01AC01BD01CF010895EE0FFF1F881F6B
:101F40008BBF0790F691E02D19940F931F93CF93B9
:101F5000DF938230910510F482E090E0E091F80286
:101F6000F091F90230E020E0B0E0A0E0309799F481
:101F70002115310509F44AC0281B390B24303105DD
:101F8000D8F58A819B816115710589F1FB019383E5
:101F90008283FE0111C04081518102811381481763
:101FA0005907E0F04817590799F4109761F0129615
:101FB0000C93129713961C933296CF01DF91CF9119
:101FC0001F910F9108950093F8021093F902F4CF36
:101FD0002115310551F04217530738F0A901DB01F3
:101FE0009A01BD01DF01F801C1CFEF01F9CF909354
:101FF000F9028093F802CDCFFE01E20FF31F819327
:1020000091932250310939832883D7CF2091F6024A
:102010003091F702232B41F4209102023091030208
:102020003093F7022093F6022091000230910102D2
:102030002115310541F42DB73EB74091040250916E
:102040000502241B350BE091F602F091F702E2172E
:10205000F307A0F42E1B3F0B2817390778F0AC01CB
:102060004E5F5F4F2417350748F04E0F5F1F5093A8
:10207000F7024093F602819391939FCFF0E0E0E066
:102080009CCFCF93DF930097E9F0FC013297138246
:102090001282A091F802B091F902ED0130E020E047
:1020A0001097A1F420813181820F931F2091F602B5
:1020B0003091F7022817390709F061C0F093F70251
:1020C000E093F602DF91CF910895EA01CE17DF0782
:1020D000E8F54A815B819E0141155105B1F7E9019F
:1020E000FB83EA8349915991C40FD51FEC17FD0773
:1020F00061F4808191810296840F951FE901998393
:102100008883828193819B838A83F0E0E0E012964A
:102110008D919C9113970097B9F52D913C91119752
:10212000CD010296820F931F2091F6023091F702A3
:102130002817390739F6309751F51092F9021092A5
:10214000F802B093F702A093F602BCCFD383C28308
:1021500040815181840F951FC817D90761F44E5FE4
:102160005F4F88819981480F591F518340838A812D
:102170009B81938382832115310509F0B0CFF093C1
:10218000F902E093F8029ECFFD01DC01C0CF13827B
:102190001282D7CF4F925F926F927F928F929F92CF
:1021A000AF92BF92CF92DF92EF92FF920F931F9365
:1021B000CF93DF938C01009799F4CB01DF91CF91FE
:1021C0001F910F91FF90EF90DF90CF90BF90AF9055
:1021D0009F908F907F906F905F904F900C94A50F81
:1021E000FC01E60FF71F9C0122503109E217F307AB
:1021F00008F4AEC0D901CD91DC911197C617D7076D
:1022000020F1C530D10578F0CE01049786179707E5
:1022100050F0C61BD70B2297C193D1936D937C933B
:10222000CF010E944110C801DF91CF911F910F9102
:10223000FF90EF90DF90CF90BF90AF909F908F90E6
:102240007F906F905F904F9008955B01AC1ABD0A2C
:102250004C018C0E9D1EA091F802B091F902512CF8
:10226000412CF12CE12C109731F58091F6029091E0
:10227000F7028815990509F05CC04616570608F064
:1022800058C08091000290910102009741F48DB7EF
:102290009EB74091040250910502841B950BE817EC
:1022A000F90708F055C0F093F702E093F602F90140
:1022B00071836083B8CF8D919C91119712966C9029
:1022C000129713967C901397A815B90559F56C01D0
:1022D00042E0C40ED11CCA14DB0420F1AC014A193F
:1022E0005B09DA011296159780F06282738251833E
:1022F0004083D9016D937C93E114F10471F0D7010F
:102300001396FC93EE9312978ECF22968C0F9D1FFF
:10231000F90191838083F301EFCFF093F902E09309
:10232000F80281CF4816590608F42C017D01D3012B
:102330009ACFCB010E94A50F7C01009749F0AE0116
:10234000B8010E94AB11C8010E94411087016BCFF8
:1023500010E000E068CFFB01DC0102C001900D92AB
:1023600041505040D8F70895FB01DC0101900D92D7
:0A2370000020E1F70895F894FFCF74
:10237A000000FA02800000000000E60250027D021E
:0E238A003303AE028C02A0022F000D0A0000E9
:00000001FF
